:020000040800F2
:10000000E071002011020008FF160008DF1500084B
:10001000FD160008B30300083D1C000800000000A6
:1000200000000000000000000000000003170008AE
:10003000550400080000000001170008051700081B
:100040002B0200082B0200082B0200082B020008DC
:100050002B0200082B0200082B0200082B020008CC
:100060002B0200082B0200082B0200082B020008BC
:100070002B0200082B0200082B0200082B020008AC
:100080002B0200082B0200082B0200082B0200089C
:100090002B0200082B0200082B0200082B0200088C
:1000A0002B0200082B0200082B0200082B0200087C
:1000B0002B0200082B0200082B0200082B0200086C
:1000C0002B0200082B0200082B0200082B0200085C
:1000D0002B020008311C00082B0200082B0200082C
:1000E0002B0200082B0200082B0200082B0200083C
:1000F0002B0200082B0200082B0200082B0200082C
:100100002B0200082B0200082B0200082B0200081B
:100110002B0200082B0200082B0200082B0200080B
:100120002B0200082B0200082B0200082B020008FB
:100130002B0200082B0200082B0200082B020008EB
:100140002B0200082B0200082B0200082B020008DB
:100150002B0200082B0200082B0200082B020008CB
:100160002B0200082B0200082B0200082B020008BB
:100170002B0200082B0200082B02000800000000E0
:100180002B0200082B0200082B0200082B0200089B
:100190002B0200082B0200082B0200082B0200088B
:1001A0002B0200082B0200082B0200082B0200087B
:1001B0002B0200082B0200082B0200082B0200086B
:1001C0002B0200082B020008000000002B02000890
:1001D0002B0200082B0200082B0200082B0200084B
:1001E0002B0200082B0200082B0200082B0200083B
:1001F0002B0200082B020008DFF810D000F09CF85A
:10020000004800475D400008AFF30080E071002027
:100210000648804706480047FEE7FEE7FEE7FEE7A0
:10022000FEE7FEE7FEE7FEE7FEE7FEE7C117000890
:10023000F90100082DE9F05F0546002092469B4633
:1002400088460646814640241BE0284641464746EC
:10025000224600F060F853465A46C01A914110D326
:1002600011461846224600F047F82D1A67EB0108A0
:100270004F4622460120002100F03EF817EB00090E
:100280004E41201EA4F10104DFDC484631462A46D7
:100290004346BDE8F09F40EA01039B0703D009E015
:1002A00008C9121F08C0042AFAD203E011F8013B62
:1002B00000F8013B521EF9D27047D2B201E000F8BB
:1002C000012B491EFBD270470022F6E710B51346FA
:1002D0000A4604461946FFF7F0FF204610BD30B528
:1002E00004460020034600E05B1C934203D2E05C1E
:1002F000CD5C401BF8D030BD202A04DB203A00FA48
:1003000002F1002070479140C2F1200320FA03F36C
:10031000194390407047202A04DB203A21FA02F06A
:100320000021704721FA02F3D040C2F1200291402F
:100330000843194670470000064C074D06E0E06888
:1003400040F0010394E8070098471034AC42F6D31C
:10035000FFF756FF800C0408A00C040870B58C1839
:1003600010F8015B15F0070301D110F8013B2A11C9
:1003700006D110F8012B03E010F8016B01F8016BB6
:100380005B1EF9D12B0705D40023521E0DD401F8B2
:10039000013BFAE710F8013BCB1A921C03E013F87B
:1003A000015B01F8015B521EF9D5A142D8D30020B0
:1003B00070BDFEE7204AF0B5204E116840F251446E
:1003C000631C002021F00107176001213268C2F38D
:1003D0000A02A2F58065493D04D0A24204D140F052
:1003E000010005E0084603E09A4201D1012200E045
:1003F0000022144B1043124A09D0134881608168CF
:100400000029FCD102600068984213D0FEE70F4C2F
:100410004FF00A402468B0EB445F0BD10C480160F8
:1004200001680029FCD10A48083802600068984237
:1004300000D0FEE7F0BD0000002000E0002004E056
:10044000C2A507F4CDB5E8B5003002400010005C4D
:10045000084C02587047F0B50126044600201E23C0
:1004600001E05B1E05D303F01F0706FA07F50D42F6
:10047000F7D072B1082A0AD0102A05D0182A01D163
:10048000072B06D30120F0BD082BFBD201E0102B77
:10049000F8D22368596121688B6823F0180313434D
:1004A0008B60F0BD10B5040010D0607F20B9002033
:1004B0002077204600F032F821790220607739B1A8
:1004C000D4E902122046FFF7C6FF48B1012010BD53
:1004D0002168114848612068816821F01801816015
:1004E0006079A0B1216820690861012220686369F0
:1004F000816821F06001194381602068A3698168E7
:1005000021F08001194381606277002010BD2168CD
:100510004FF0FF30E8E70000B71DC10408B50068E0
:100520000649884208D10648016841F480510160BB
:10053000006800F48050009008BD000000300240C8
:100540003038024090F83510022903D080214165EF
:1005500001207047052180F835100068016821F0FE
:1005600001010160002070472DE9F84F00224FF093
:1005700001094FF0030A4FF00F0E00BF0B6809FA94
:1005800002F42340A34270D14D68012D05D0022D05
:1005900003D0112D01D0122D11D185685700CE68DE
:1005A0000AFA07FC25EA0C05BE402E438660456822
:1005B0000E79A543C6F3001696402E434660C568E3
:1005C00056008F680AFA06F4A543B7402F43C76068
:1005D0004D68022D01D0122D12D1D5080F694FEAB6
:1005E000427C00EB8505AB462D6A4FEADC6C0EFAC7
:1005F0000CF807FA0CF725EA08052F43CBF8207012
:100600000D79076805F00305A743B5403D43056034
:100610004C68E40074D53D4C256845F48045256060
:10062000246822F00307960704F480440094384CB1
:10063000360F2744D7F80848DFF8D8C00EFA06F579
:10064000604524EA050401D100252EE0324DA84280
:1006500001D1012529E0314DA84201D1022524E034
:100660002F4DA84202D103251FE049E02D4DA8429D
:1006700001D1042519E02C4DA84201D1052514E033
:100680002A4DA84201D106250FE0294DA84201D1EB
:1006900007250AE0274DA84201D1082505E0264D8F
:1006A000A84201D1092500E00A25B540234E254383
:1006B000C7F808584D683468ED0324EA030400D5F0
:1006C0001C431E4D34602D1D4E682C68B60324EA71
:1006D000030400D51C43194E2C6008364D6834685D
:1006E000ED0224EA030400D51C43144D34600C359C
:1006F0004E682C68B60224EA030400D51C432C6023
:10070000521C102AFFF43AAFBDE8F88F443802407B
:100710000030014000000240000402400008024096
:10072000000C024000100240001402400018024079
:10073000001C02400020024000240240003C014016
:1007400001488068704700009C0A002002488168C8
:1007500002781144816070479C0A0020032010B584
:1007600000F06EF8002000F005F800F023F80020FB
:1007700010BD000070B50D4D04464FF47A700C4A60
:1007800029781268B0FBF1F0B2FBF0F000F0F4FD54
:1007900048B9102C07D200222146501E00F030F834
:1007A00000206C6070BD012070BD00009C0A00201C
:1007B000A80A00200A4808B5016841F0805101608C
:1007C000006800F0805000900548001D016841F469
:1007D00080410160006800F48040009008BD000086
:1007E00040380240002809DB410900F01F0289005F
:1007F000012001F1E0219040C1F8000170470000A4
:100800000E4BF0B41B680D46C3F30223C3F1070679
:10081000042E00D90426191D072901D2002300E067
:10082000DB1E012404FA06F19C40491E2940641E87
:10083000994014402143F0BC01F025BA0CED00E0D2
:10084000064900F0070210B54FF6FF040868044B94
:10085000204040EA02201843086010BD0CED00E083
:100860000000FA051848F8B5016841F080510160B0
:100870000068164C00F080500090206840F48030F2
:100880002060FFF75DFF4FF47A76054605E000BF74
:10089000FFF756FF401BB0420FD86068C003F7D582
:1008A000206840F400302060FFF74AFF054606E06C
:1008B000FFF746FF401BB04201D90320F8BD606836
:1008C0008003F5D50020F8BD40380240007000409C
:1008D0002DE9F84F04460078DFF824944FF0000625
:1008E0003746C0070ED0D9F8001021F40001C9F82E
:1008F0000010D9F80010626B1143C9F80010606B4A
:1009000000B90126FE4D2068843500030ED5E16B49
:10091000286820F4401008432860E06BB0F5801F81
:1009200001D010B102E0012600E0012720684FF459
:10093000800BC0020CD5216C286820F440000843CD
:100940002860206C584501D1012601E000B901273B
:100950002068C10100D50126800666D5E8483830F8
:10096000016841F0805101600068DFF898A300F051
:1009700080500090DAF8001041F48071CAF800103D
:10098000FFF7DEFE804605E0FFF7DAFEA0EB080089
:1009900064287DD8DAF80000C005F5D5DFF860835B
:1009A00008F16808D8F8000010F440702AD0218EB1
:1009B00001F44071814225D0D8F80010D8F8002009
:1009C00021F4407142F48032C8F80020D8F80020A9
:1009D00022F48032C8F80020C8F80010D8F80000CF
:1009E000C0070FD0FFF7ACFE824607E0FFF7A8FE76
:1009F000A0EB0A0141F288308142CAD8D8F8000041
:100A00008007F3D5206BC0F3012103297ED0D9F8EC
:100A1000001021F4F811C9F80010228ED8F8001047
:100A2000C2F30B021143C8F800102078C00607D5A6
:100A3000286820F0807028602868A16B084328602F
:100A40002188AF488830490405D5626E016821F4D9
:100A50004031114301602188090405D5A26E016867
:100A600021F44021114301602168C90305D5E26EDC
:100A7000016821F44011114301602168890305D503
:100A8000226F016821F4400111430160217800E0E8
:100A900034E1490605D5626C016821F00301114378
:100AA00001602178090605D5A26C016821F00C01CE
:100AB000114301602188C90505D5E26C016821F068
:100AC0003001114301602188890505D5226D016837
:100AD00021F0C001114301602188490505D5626DEF
:100AE000016821F44071114301602188090505D591
:100AF000A26D016821F44061114301602188C9049D
:100B000007D5E26D016821F4405100E05FE0114338
:100B100001602188890405D5226E016821F44041D5
:100B2000114301602168490205D5A26F016821F0D7
:100B300080611143016021684FF0006A890209D584
:100B4000E26F016821F0006111430160E16F5145DE
:100B500000D1012721680A0700D50127490305D5DF
:100B6000626F016821F04071114301602168090240
:100B700006D5D4F88020016821F08051114301602E
:100B80002168490106D5D4F88420016821F000517C
:100B9000114301602068000106D5D4F88810286848
:100BA00020F00070084328602068C00006D5D4F803
:100BB0008C10286820F0806008432860DFF8489196
:100BC000012E0ED02068B0F1007F0AD08FE04F4A8E
:100BD000D9F80030104023F4F8120243C9F800207D
:100BE0001BE7D9F800004E4620F08060C9F80000ED
:100BF000FFF7A6FD804605E0FFF7A2FDA0EB080089
:100C000064287BD830680001F6D421783C487C30D9
:100C1000C90712D0616B81B9237A62680168D0F884
:100C200000C09201C1F3014142EA0142CCF30361E9
:100C300042EA016141EA0371016021680A0303D5B8
:100C4000E26BB2F5801F04D0C9021AD5216C594558
:100C500017D16368016894F80CC002689B01C1F366
:100C6000014143EA0141C2F3027241EA0C6141EAE7
:100C7000027101602968626A21F01F01521E11434E
:100C800029602168C90110D5238A62680168D0F8FB
:100C900000C09201C1F3036142EA034242EA0162E9
:100CA000CCF3027142EA01710160216889010CD51F
:100CB0006168228A237B94F808C0890141EA0241D5
:100CC00041EA036141EA0C7101603168B04641F0CC
:100CD00080613160FFF734FD064604E0FFF730FD28
:100CE000801B64280AD8D8F800000001F6D5E7B3C5
:100CF000D9F800004E4620F0805009E07BE000006B
:100D0000083802400070004000380240FFFCFF0F2E
:100D1000C9F80000FFF714FD074604E0FFF710FDD7
:100D2000C01B642867D83068C0438000F6D52168AE
:100D300035480A0301D5E26B1AB1C9021DD5216CF1
:100D4000D9B963690168277E02689B01C1F301413B
:100D500043EA0143C2F3027143EA076242EA0171C6
:100D6000016029686FF0FF0300E04BE0A26A21F404
:100D7000F85103EB0222114329602168890212D540
:100D8000E16F51450FD1238C6269016807689201B8
:100D9000C1F3036142EA034242EA0162C7F302710E
:100DA00042EA017101602178090716D5616902687C
:100DB000D0F800C08B01277FC2F30362CCF301415E
:100DC00043EA014141EA026141EA07710160286892
:100DD000E16A20F4403008432860306840F08050D9
:100DE0003060FFF7ADFC044608E000BFFFF7A8FC49
:100DF000001B642802D90320BDE8F88F3068C04387
:100E00008000F3D40020F7E7883802402DE9F0474E
:100E100005000F4663D0444E306800F00F00B84222
:100E200009D2306820F00F0038433060306800F09D
:100E30000F00B84253D128683C4C810712D54007B7
:100E400003D5206840F4E05020602878000703D5DF
:100E5000206840F460402060A968206820F0F0001D
:100E6000084320602878C0072AD0304968680839CC
:100E7000012810D00968022810D0890700292EDA2D
:100E8000216821F0030101432160FFF759FC8046EE
:100E900041F288390DE009688903EFE78901EDE740
:100EA000FFF74EFCA0EB0801494502D90320BDE83D
:100EB000F0876868216801F00C01B1EB800FEFD179
:100EC000306800F00F00B8420BD9306820F00F00F6
:100ED00038433060306800F00F00B84201D0012084
:100EE000E5E72878400705D5E968206820F4E05058
:100EF000084320602878000706D52869216821F476
:100F0000604141EAC000206000F038F82168084ADA
:100F1000C1F30311515CC8400649086006480068E7
:100F2000FFF728FC0020C2E7003C024008380240DE
:100F3000640B0408A80A0020A00A00200449054800
:100F400009680068044AC1F38221515CC8407047B7
:100F500008380240A80A0020740B04080449054818
:100F600009680068044AC1F34231515CC8407047C7
:100F700008380240A80A0020740B0408154910B56F
:100F80001548096811F00C0213D01449042A0FD037
:100F9000082A0ED10F4C241F2268236802F03F025A
:100FA0005B0207D52068C0F38810A0FB010106E0B2
:100FB000084610BD2168C1F38811A1FB0001002380
:100FC000FFF738F92168C1F30141491C4900B0FB22
:100FD000F1F010BD083802400024F40040787D0193
:100FE0002DE9F84F04004FF000076ED02078DFF8AD
:100FF0007CA3AAF10408C007A8F104054CD0DAF8D4
:1010000000105046C1F38101012908D00068C0F3E7
:10101000810002280AD1D8F80000400206D52868CD
:10102000800339D560680028DFD035E06068B0F50E
:10103000803F0BD010B1B0F5A02F11D0286820F45C
:1010400080302860286820F4802002E0286840F47E
:1010500080302860606890B1FFF772FB06460AE0B6
:10106000286840F480202860F0E700BFFFF768FBA5
:10107000801B642872D828688003F7D50CE0FFF73E
:101080005FFB064605E000BFFFF75AFB801B6428A4
:10109000F0D828688003F7D42078800742D5DAF8A2
:1010A0000010504611F00C0F08D00068C0F381000A
:1010B00002280BD1D8F80000400207D42868800726
:1010C00018D5E068012800D114E04AE1E068002862
:1010D000286817D040F001002860FFF731FB064672
:1010E00005E000BFFFF72CFB801B0228C2D8286850
:1010F0008007F7D52069296821F0F80141EAC0008E
:1011000028600FE020F001002860FFF719FB064679
:1011100005E000BFFFF714FB801B02281ED82868DB
:101120008007F7D42078000729D5904861696C3092
:1011300000298146016812D041F001010160FFF7EA
:10114000FFFA064605E000BFFFF7FAFA801B022807
:1011500004D8D9F800008007F6D510E089E021F026
:1011600001010160FFF7ECFA064604E0FFF7E8FA38
:10117000801B02287DD8D9F800008007F6D420789B
:1011800040076BD5DFF8E49109F13809D9F8000080
:10119000C0000BD4D9F8001041F08051C9F80010FC
:1011A000D9F80000012700F08050009070480168D5
:1011B000C90512D40168834641F480710160FFF7CC
:1011C000BFFA064605E000BFFFF7BAFA801B6428A5
:1011D0004FD8DBF80000C005F6D5644EA06868362D
:1011E00001280AD008B1052811D0306820F001008C
:1011F0003060306820F0040002E0306840F0010008
:101200003060A068A0B1FFF79BFA83460CE030681D
:1012100040F004003060F0E7FFF792FAA0EB0B011A
:1012200041F28830814268D830688007F4D50EE0FA
:10123000FFF786FA834607E0FFF782FAA0EB0B017F
:1012400041F28830814258D830688007F4D42FB1F9
:10125000D9F8001021F08051C9F80010A069E0B35E
:10126000DAF80010C1F3810102294DD00228286864
:1012700000E042E020F08070286003D0FFF760FAC1
:1012800004463DE0FFF75CFA064604E0FFF758FA33
:10129000801B022831D828688001F7D4D4E90921BD
:1012A000DFF8D0C0D4E9070694F830304F0894F83E
:1012B0002C1030430CEB074444EA8212104340EAFE
:1012C000016040EA0370C8F80000286840F08070B0
:1012D0002860FFF735FA044605E044E0FFF730FAEE
:1012E000001B022809D828688001F7D53BE000BF21
:1012F000FFF726FA001B022802D90320BDE8F88F69
:1013000028688001F4D42EE00128D8F8000028D005
:10131000E16900F480028A4223D1216A00F03F0291
:101320008A421ED1626A47F6C0710140B1EB821F4A
:1013300017D1A16A4FF0FF3200F4403302EB5101A4
:10134000B3EB014F0DD194F82C1000F07062B2EBAA
:10135000016F06D194F8301000F0E040B0EB017F4F
:1013600001D00120CAE70020C8E700000838024089
:10137000007000400000FFFF401EB0F1807F10B5FC
:1013800001D3012010BD4FF0E02460610F216017F0
:1013900000F079FC0020A0610721216110BD704799
:1013A000704700002DE9F04102680446002540F630
:1013B0000F06D06911689368304205D186067BD547
:1013C0008E0679D5216E87E003F0010601F490774F
:1013D000374371D0C70707D0CF0505D5012717625E
:1013E000E26F42F00102E267820708D5DA0706D011
:1013F000276802223A62E26F42F00402E267420783
:1014000008D5DA0706D0236804221A62E26F42F098
:101410000202E26702070AD501F02002324306D039
:10142000236808221A62E26F42F00802E2670205AE
:1014300009D54A0107D523684FF400621A62E26FAA
:1014400042F02002E267E26F002A2ED0800605D526
:10145000880603D5216E09B1204688472168E06FD0
:101460008968490602D410F0280F20D0204600F0E9
:101470004FFA20688168490614D5816821F040013F
:101480008160E06E70B11D490165E06EFFF75AF8AA
:1014900000280AD0E06E016D00E02046BDE8F04172
:1014A000084709E02046FFF77BFFBDE8F0812046B2
:1014B000FFF776FFE567F8E7C60208D55B0206D5B9
:1014C0004FF4801010622046FFF769FFEDE7030636
:1014D00005D50B0603D5616E0029DED1E5E7400690
:1014E000E3D54806E1D513682021204623F04003C8
:1014F00013606167656600F071F8D6E7FD180008B3
:1015000010B5040002D0606F10B107E0012010BDDB
:10151000002084F87000204600F026F82420606740
:101520002068016821F001010160204600F000FA06
:101530000128ECD0606A10B1204600F04FF9206815
:10154000416821F4904141602068816821F02A01BE
:1015500081602068016841F0010101602046BDE81A
:10156000104000F09FB9000010B586B00446142169
:101570006846FEF7A9FE16492068884226D115481C
:10158000016841F010010160006800F01000059052
:1015900010481438016841F001010160006802211F
:1015A000002200F001000590032307244FF4C060DF
:1015B0008DE81F0008486946FEF7D6FF0022252067
:1015C0001146FFF71DF92520FFF70CF906B010BDF5
:1015D0000010014044380240000002407047FEE71E
:1015E0000C48002110B50A4C0C224FF4E133046082
:1015F000C0E90131C160C0E904128161C1610162C9
:101600004162FFF77DFF002801D072B6FEE710BDF2
:10161000001001405C31002005A010B500F010FB67
:1016200001F06EFFBDE81040094901F0E9B9000082
:101630000D0A54454D504C415445202D20696E698A
:101640007469616C697A6174696F6E0D0A000000DB
:10165000B00B00202DE9F04112A000F0F1FA194F73
:1016600019483968D9B1194C218E012902D1618EEE
:10167000012902D0006816490FE0164E06F54465B0
:10168000D4E90D120E611561386801F086FF01285A
:10169000F6D0386801F038FF0FA101F0E3FE406892
:1016A00011A1FAE754454D504C415445202D20726C
:1016B000756E202D206D61696E206C6F6F700D0A44
:1016C00000000000980A00202C0B04083C0B0020AE
:1016D000380C0408D024002061695F6E6574776F50
:1016E000726B5F72756E000050726F63657373206A
:1016F000686173204641494C45440000FEE7FEE71F
:1017000070477047FFF722B830B5B7B0342124A82E
:10171000FEF7DAFD142131A8FEF7D6FD90216846C8
:10172000FEF7D2FD2448016841F080510160006855
:1017300000F0805036902148016841F4404101603A
:10174000006800250DF1B00C022424940822D8234F
:10175000CDE92A4500F44040369010218CE81C0069
:1017600001202F94CDE9270124A8FFF739FC08B107
:1017700072B6FEE7FFF776F808B172B6FEE74FF4EF
:1017800080524FF4A0510F20CDE9341231AA072125
:1017900082E8310031A8FFF739FB08B172B6FEE7E5
:1017A0004020119500906846FFF792F8002801D07C
:1017B00072B6FEE737B030BD4038024000700040DE
:1017C00005484FF000610368034A43F47003036067
:1017D000803A11607047000088ED00E090F8241016
:1017E000C90706D00168836A4A6822F400321A43A6
:1017F0004A6090F82410890706D50168C36A4A68D0
:1018000022F480321A434A6090F82410490706D522
:101810000168036B4A6822F480221A434A6090F8F8
:101820002410090706D50168436B4A6822F4004278
:101830001A434A6090F82410C90606D50168836BE4
:101840008A6822F480521A438A6090F8241089062C
:1018500006D50168C36B8A6822F400521A438A6075
:1018600090F82410490611D50168036C4A6822F4E7
:1018700080121A434A60016CB1F5801F06D10168DD
:10188000436C4A6822F4C0021A434A6090F824105C
:10189000090606D50168826C486820F400201043D0
:1018A00048607047F8B500260446C667FEF748FF53
:1018B000054620686FF07E470068000708D50022C3
:1018C0002B464FF400112046009700F05FF960B9F5
:1018D0002068006840070AD500222B464FF480019B
:1018E0002046009700F052F908B10320F8BD2020EF
:1018F000606784F87060A0670020F8BD10B5806B49
:101900000021A0F85A10A0F85210FFF749FD10BDB1
:1019100010B50168202200230C6824F490740C6038
:1019200001688C6824F001048C608267036610BD36
:101930002DE9F04104468068DFF820C2884F236813
:10194000D4E90452E16928431E6800250A43854909
:10195000104306EA0C0606431E604FF4004220685E
:10196000E668436823F44053334343602368A66921
:10197000206AD3F808C030432CF4306606439E60DA
:101980002068B8420AD1086810F0030052D001283C
:101990007BD002287AD003286ED186E0724B984221
:1019A0000AD1086810F00C0079D004287BD00828F0
:1019B00077D00C2860D178E06C4B98420AD1086847
:1019C00010F030006BD010286DD0202869D030285E
:1019D00052D16AE0664B98420AD1086810F0C00004
:1019E0005DD040285FD080285BD0C02844D15CE027
:1019F000604B98420DD1086810F440704FD0B0F59C
:101A0000807F50D0B0F5007F4BD0B0F5407F33D110
:101A10004BE0594B98420FD1086810F4406009D050
:101A2000B0F5806F3FD0B0F5006F3AD0B0F5406FA1
:101A300022D13AE0012120E0504B98420DD10868B4
:101A400010F440502BD0B0F5805F2CD0B0F5005F83
:101A500027D0B0F5405F0FD127E0494B98420BD11A
:101A6000086810F440401AD0B0F5804F1BD0904267
:101A700017D0B0F5404F18D01021E0694FF6EF763F
:101A800090423AD1092961D202E00CE009E006E077
:101A9000DFE801F00D10255C285C5C5C2B00002168
:101AA000EBE70221E9E70421E7E70821E5E7FFF793
:101AB00045FA01E0FFF752FA6168400000EB51007F
:101AC000B0FBF1F080B2A0F11001B1423ED84FF668
:101AD000F0732168C0F342021840104326E0294900
:101AE000606805E0FFF74AFAE6E760684FF4803186
:101AF00001EB5001B1FBF0F0E4E7092926D2DFE861
:101B000001F0050817251C2525251F00FFF716FAEB
:101B100001E0FFF723FA616800EB5100B0FBF1F040
:101B200080B2A0F11001B14210D82168C8600EE067
:101B30006068154901EB500105E0FFF71FFAEAE77D
:101B4000606802EB5001B1FBF0F0E9E701250020ED
:101B5000206660662846BDE8F0810000F369FFEF6B
:101B6000001001409038024000440040004800400E
:101B7000004C00400050004000140140007800403C
:101B8000007C00400048E8010024F4002DE9F04703
:101B90009A4617460E460446089D4FF000094FF03E
:101BA000200839E0681C37D0FEF7CAFDA0EB0A0018
:101BB000A84222D80DB32068016849072CD5C06916
:101BC000C043000528D423684FF4006119622168DE
:101BD0000B6823F4D0730B6021688B6823F001033A
:101BE0008B60C4F87480C4F87880C4F87C8000BF2F
:101BF000032084F87090BDE8F08721680B6823F417
:101C0000D0730B6021688B6823F001038B60C4F8EC
:101C10007480C4F87880EBE72068C06936EA000079
:101C200004D00020B842BDD00020E4E70120F9E74D
:101C30000148FFF7B7BB00005C310020FEE7000061
:101C40000FB4054B10B503A9044A029800F014FC28
:101C500010BC5DF814FB0000F53F0008AC0A002042
:101C60004100080218BF04200A0E18BF40F001000E
:101C70004FF07F4232EA010108BF40F00200012824
:101C800008BF05207047090700284FEA116104DBEF
:101C900000F1E02080F80014704700F00F0000F120
:101CA000E02080F8141D70479FED3C0A63E000BF00
:101CB00092ED003A91ED004AD2ED012AD1ED013AC0
:101CC00004EE030A92ED022AD1ED021AD2ED030AC4
:101CD00091ED031A91ED044A03EEA20AD2ED043A03
:101CE00092ED053AD1ED052A01EE820A92ED062A1F
:101CF000D1ED061A01EE200A92ED071AD1ED070A7E
:101D000004EE230AD2ED083A91ED084A02EE830A66
:101D1000D2ED092A91ED093A01EE820A92ED0A2AE2
:101D2000D1ED0A1A00EE810A92ED0B1AD1ED0B0AE1
:101D300004EE230A91ED0C4AD1ED0D3A03EE220A8E
:101D400092ED0C3AD2ED0D2A01EE820A92ED0E2AA6
:101D5000D1ED0F1A00EE810A91ED0E1AD2ED0F0AA5
:101D600040314032103B04EE030A03EEA20A01EEBA
:101D7000020A01EEA00A102B9AD206E0F1EC010A49
:101D80005B1EB2EC011A00EE810A002BF6D1D0EDF9
:101D9000000A30EE800A80ED000A70470000000063
:101DA00030B528B1144C031F002021680A4605E015
:101DB000084630BD9A4203D810465268002AF9D12D
:101DC000002800D041680BD00468A3EB0005A542B1
:101DD00004D11B681C440346046002E0436000E039
:101DE00023603AB11C68D51AA54203D115682C446A
:101DF0001C6052685A6030BDB00A002010B510EE69
:101E0000104A4FF019406849002200EB44002DEDC4
:101E1000028B884257D8DFED650A14F0004F60EE60
:101E2000200A14BF9FED621A9FED621A71EE200A1C
:101E3000FDEEE00A10EE900A00EE900AF8EEE00ADD
:101E40009FED5D1A00EEC10A9FED5C1A00EEC10A1B
:101E5000DFED5B0A9FED5B1A00EE201ADFED5A0AF8
:101E600040EE010A9FED591A594B00F0030100EEB4
:101E7000201A21EE000A7B4403EB8103D3ED000A14
:101E8000544B7B4403EB810393ED001A524B41EE1C
:101E9000000A7B4403EB8101801091ED000A70EE93
:101EA000800AEABB00EE100AB8EEC01ADFED4B1A4A
:101EB0009FED4B0ABDEC028B01EE210ABCEEC00A7D
:101EC00020EE200A10BD4FF0FF40A0431BD04FF082
:101ED000CE40B0EB440F82BF9FED420ABDEC028BB7
:101EE00010BD4148B0EB440F28BF012293D202201D
:101EF00000F0CAF814F0004F15D0BDEC028BBDE81D
:101F0000104000F0A9B814F5000F02BF9FED370A8A
:101F1000BDEC028B10BDBDEC028BBDE8104000E0B3
:101F200007E000F08DB8BDEC028BBDE8104000F07A
:101F30008BB800EBD07359104FF07E5202EBC151B9
:101F400000EE101AA0EB630002EBC05060EE200A16
:101F500000EE100A20EE208A18EE100A88B118EE62
:101F6000100AB0F1FF4F15D018EE100AFFF778FEF7
:101F7000042808BF00F070F8B0EE480ABDEC028BF0
:101F800010BD022000F080F8BDEC028BBDE81040CF
:101F900000F062B8022000F077F8BDEC028BBDE8DB
:101FA000104000F051B800000000501E3BAAB8409D
:101FB000000000BF0000003F0070313EF4FD053717
:101FC00012BB2A3D12BB2A3EFFFFFF3EFFFF7F3FB1
:101FD00032ED030036ED030006ED03000000004B78
:101FE00000007E4E0000803F0000A0850000000041
:101FF0002DE9F04782460F4C10480D4E0E4F001B46
:102000004FF0000820F007054FF0010900221146AB
:10201000504601F0FBFF002802D1306810B10020CB
:10202000BDE8F0873C60C4E90058C6F80090EDE7D1
:10203000B40A0020E4310020B00A0020E051002062
:1020400030EE000A704700009FED020A20EE000A01
:1020500070470000000000709FED020A20EE000AA9
:10206000704700000000001002E008C8121F08C1FD
:10207000002AFAD170477047002001E001C1121F09
:10208000002AFBD17047000001490860704700003A
:10209000B80A00202DE9F05F00278A460446B946B9
:1020A0003E4637E0A06806EB4601D0E9012002EB8E
:1020B000C10500EBC60BD8F81800006800F02AFC38
:1020C00028600121A980D8F80C008089E880D8F820
:1020D0000C0000892881D8F80C004068E860D8F826
:1020E0001800806828615FEA0B0009D0C0F80090F2
:1020F000D8F80010416029B1498819B1012102E0E6
:10210000484603E00021016001B9002068617F1C9E
:10211000BFB2761C0CB1208800E00020B04206D986
:10212000606820B150F826005FEA0008BAD11FB1FC
:10213000A0684168CAF800103846BDE8F09F2DE954
:10214000FE4F040092460F4604D0B4F8480020B178
:10215000E56C03E00020BDE8FE8F0025217B002018
:10216000E082C943A082880702D030221121E1E039
:10217000002F61D0DDB32888C8B3B7F804900026DB
:1021800058E0A868006800EB0610019054D070B3C6
:1021900006EB4600029007EBC0000090DBF8183019
:1021A0000189C2888E46C068D3F804C051434143B8
:1021B000614519D8DBF80C10D1F80C80904513D18B
:1021C000D1F80880F0450FD1496881420CD11868D8
:1021D000614600F07CFBDBF80C20DBF81430D168A2
:1021E000DA685143884203D218221221A2E023E088
:1021F000DBF81800006800F08DFB0146029857F8E4
:102200003020C801B0EBC21F01D01922EDE70098C1
:10221000006988B10098808880B14845494600D25D
:1022200008465A468146DDE9001000F093F806F1B1
:1022300001062DB1288804E01722D6E72122D4E731
:102240000020B04206D9686820B150F826B0BBF132
:10225000000F96D1BAF1000F0AD0B4F84800012857
:1022600008D9E56C0C3505D0288818B100265DE04A
:10227000012070E718225CE0A868006800EB0618EF
:102280003ED0B8F1000F3BD006EB46000190BA6992
:102290000AEBC0018B46B1F808C0C888E646CB6897
:1022A00051680CFB00FC0CFB03FC8C45E2D8D7F812
:1022B0000CC0CDF800C0DCF80CC08445DAD1009821
:1022C000D0F808C0F445D5D1009840689842D1D1E3
:1022D000106800F0FCFA7A690146F868D268C068B4
:1022E00050438142C6D3B869006800F013FB0199DE
:1022F000C0015AF83110B0EBC11F03D0192218E009
:10230000172216E0DBF810000028F9D0BBF8040013
:1023100070B14845494600D20846594681463A467A
:10232000404600F017F806F101063DB1288806E0A6
:1023300021221321204601F081FA0BE70020B04250
:1023400005D9686818B150F82670002F94D1A4F808
:1023500014908DE730B5D3685569DC68EB685C4351
:1023600084608B886343C3600C69446009691944C5
:10237000016091690B689B0007D4D1E902355B1BB2
:1023800023448B6091694068C86030BD2DE9F041FD
:102390000026054621E0AA6888691368026803EBF5
:1023A0000614920005D58068D4E90112FDF773FF89
:1023B00008E0D0E902236768D21A3A44826089694A
:1023C0006068C860D4E90010A26810446060884268
:1023D00001D3E068081A6060761C0DB1288800E01F
:1023E0000020B04206D96868002803D050F82610B3
:1023F0000029D0D1BDE8F0812DE9F0410026054645
:102400002BE0AA68816913680A6803EB061492003E
:102410000FD58968D4E90102FDF73DFFD4E9010138
:10242000084460602168884201D3E068081A60604F
:1024300012E0D4E90021A36819446160914201D3FC
:10244000E168511A61608269D2E90237DB1B1944E5
:10245000916080696168C160761C0DB1288800E0D8
:102460000020B04206D96868002803D050F8260042
:102470000028C6D1BDE8F0812DE9FF4F8DB00F4691
:102480000546002606E025280BD0DDE90F1290470F
:102490006D1C761C28780028F5D111B03046BDE8B7
:1024A000F08F0024A246A1460122E94900E004433E
:1024B00015F8013F203B02FA03F00842F7D12878D3
:1024C0002A2810D06FF02F022878A0F130010929B6
:1024D00014D80AEB8A0102EB410144F0020400EB3C
:1024E000010A6D1CF0E701CF5FEA000A03D544F44E
:1024F0000054CAF1000A44F002046D1C28782E280A
:1025000017D115F8010F44F004042A280ED06FF0FB
:102510002F022878A0F1300109290AD809EB890196
:1025200002EB410100EB01096D1CF2E757F8049B37
:102530006D1C28786C280FD006DC4C2817D0682832
:102540000DD06A2814D104E0742810D07A280FD155
:102550000DE044F400140AE044F4801401E044F473
:1025600040146978814202D104F580146D1C6D1C01
:1025700028786E281ED00CDC632830D004DC0028BC
:102580008BD0582811D19FE0642867D069280CD1DE
:1025900064E073282DD004DC6F2872D0702804D139
:1025A00094E075286ED078286DD0DDE90F12904741
:1025B000761C4BE1C4F30250022806D0032809D050
:1025C000042801CF09D0066040E101CFF117C0E92E
:1025D00000613BE101CF068038E1067036E117F873
:1025E000040B8DF8000000208DF80100EB4601205F
:1025F00003E057F804BB4FF0FF3061074FF00001D4
:1026000002D40DE008F10101884649450FDA804502
:10261000F8DB1BF808100029F4D108E008F10101EB
:1026200088468142FADB1BF808100029F6D1DDE963
:102630000F23AAEB08008146214600F031F930440F
:1026400000EB080604E0DDE90F121BF8010B9047D0
:10265000B8F10108F7D221464846F2E00A21C4F356
:1026600002524FF0000B0891022A04D001CFC1178B
:10267000032A09D00AE0FF1D27F00707F7E8020147
:1026800008E02CE01EE01FE000B2C117042A01D1CF
:1026900040B2C117021E71F1000206DA0023D0EB2E
:1026A000030063EB01012D2202E0220504D52B2259
:1026B0008DF82420012203E0E20701D02022F7E771
:1026C000904653E00A210BE0102109E010214FF061
:1026D000000B44F004044FF00809089103E00821BE
:1026E0004FF0000B0891C4F30252022A04D001CF2C
:1026F0000021032A06D006E0FF1D27F00707F7E8B0
:10270000020103E080B2042A00D1C0B24FF00008F9
:1027100022072BD52A78702A07D0DDF820C08CF04C
:10272000100C5CEA0B0C05D00EE040228DF8242042
:10273000012208E050EA010306D030238DF824304E
:102740008DF8252002229046089B83F0080353EA67
:102750000B030BD150EA010201D1620706D53022EA
:102760008DF824204FF00108A9F101092A78582A90
:1027700004D038A20B9208AA0A920BE03AA2F9E719
:102780005B46089AFDF756FD0B9B9B5C0A9A521E0E
:102790000A92137050EA0102F2D10A98ADEB0000E0
:1027A00000F1200B600702D524F4803401E04FF0E3
:1027B0000109D94502DDA9EB0B0000E0002000EB88
:1027C0000B0141440890AAEB010AE00306D4DDE9BD
:1027D0000F232146504600F063F806444FF00009ED
:1027E00008E009A911F80900DDE90F12904709F185
:1027F0000109761CC145F4DBE0030CD5DDE90F23AC
:102800002146504600F04CF8064404E0DDE90F1282
:1028100030209047761C0899481E08900029F5DC66
:1028200008E00A980A990078491C0A91DDE90F121C
:102830009047761CBBF10001ABF1010BF1DC2146A6
:102840005046DDE90F2300F019F806446D1C21E61F
:102850000928010030313233343536373839616276
:10286000636465660000000030313233343536373A
:102870003839414243444546000000002DE9F0410B
:10288000044600251E461746880404D405E0394650
:102890002020B0476D1C641EF9D52846BDE8F081A4
:1028A0002DE9F041044600251E469046C80301D597
:1028B000302700E02027880404D505E0414638464B
:1028C000B0476D1C641EF9D52846BDE8F08130B5CF
:1028D000A9B1C0F3C612C0F382352A44C0F34154F3
:1028E000C0F3434302FB01F0042B00F1070020F08A
:1028F000070020FA04F004D0082B07D104E00020E0
:1029000030BD00EB021001E000EB0220C01DC0084A
:1029100030BD0000C0F3434102294FF0400130B503
:1029200019D02F4A20F07E440D019442A4EB0203FB
:1029300047D024DC2B4A9442A4EB020341D017DC9D
:10294000402C42D0403CB4F5802438D0AC423CD13D
:102950002449C91F39E0C0F3C051C0F3C612C905EC
:1029600000F07F0341EAC211194341F480212CE0B9
:10297000A3F54073F93B16D00F2B26D123E0B3F516
:10298000006F14D006DCAB420FD0A3F58063073B89
:102990001BD10EE0A3F500630F3B0DD0124AD342CA
:1029A00013D1124911E012490FE012490DE012490A
:1029B0000BE01049C91D08E00F490F3105E00F4930
:1029C00003E0114601E00A490F3100F0804200F0B7
:1029D00000530A43134300F00060184330BD000069
:1029E00040008400470404000FF801FF40108201FA
:1029F00040080400400484004008840040000400B3
:102A000030B58DB00C4600210546144800F06CFD31
:102A100010F0FF0F01D012A11DE0164930226846C8
:102A2000FDF739FC0A9469460C4C0495206800F0C7
:102A300099FD38B11049206800F068FD38B10DB03B
:102A4000002030BD206800F05FFD0CA103E020688D
:102A500000F05AFD0DA100F005FD0000980A0020CD
:102A600061695F6E6574776F726B5F6372656174C5
:102A700065000000340B04083C0B002061695F6EA8
:102A80006574776F726B5F696E69740061695F6E00
:102A90006574776F726B5F6765745F6572726F7272
:102AA0000000000009A108B50968009148B101784B
:102AB0009DF80020914204D104226946FDF70FFCE5
:102AC00008B1002008BD012008BD00000384048473
:102AD0002DE9FF4F83B09B4616ACDDE9112094E849
:102AE0000803B0FBF2FADDE91361DDF840E0049F72
:102AF000DDF854C0BE45199D03FB06F003FB0197AA
:102B0000ACEB0804A6EB05039FED3C0A03FB02F3C4
:102B100004FB01F400FB02F0A1EB05060094CDE9F3
:102B20000163059B0BEB8701F7EE000A03EB8003C3
:102B30004FF0000900FE201A03EB820B58E000273B
:102B400053E000BF0EEB89041846002694ED000AFE
:102B500020EE010A3CE000BF002425F0030C21E038
:102B6000D1ED002AD0ED003A00EB820091ED012A70
:102B700002EEA30A90ED003A00EB8200D1ED021ABA
:102B8000D0ED002A00EB820002EE030AD1ED030A29
:102B900090ED002A1031241D00EB820001EEA20A04
:102BA00000EE820AA445DBDC09E000BFF1EC010A7B
:102BB000D0ED001A641C00EB820000EEA10AAC42CA
:102BC000F4DB029C761C00EB8400019C01EB840189
:102BD0004645C1DB04987F1C00EB8904009809F18D
:102BE000010984ED000A01EB80015745AAD31B1DA2
:102BF0009B45A4D807B0BDE8F08F0000000000009E
:102C00002DE9FF4F84B09C464FF00008DDF864A02A
:102C1000059ADDE91119DDF870E09142179AB9FBC8
:102C2000FAF1DDE91503DDE91347179EB4FBFAFB62
:102C300001FB02F50EEB0002A2F1010292FBF0F49F
:102C40001A9A1A44A2F1010292FBF3F202FB064225
:102C500000FB09F402FB01F2A4EB01040CEB82027D
:102C600003FB07FC9FED450A9EFBF0F60294F7EE8E
:102C7000000A40FE200A00FB16E4A0EB040494FBCB
:102C8000F0F600FB164E1D9C179EA4EB0E040444A8
:102C9000A4F1010494FBF0F4A6EB040600FB14C0BD
:102CA00006FB01F600FB09F0019603901A9890FBD1
:102CB000F3F603FB1600A3EB000090FBF3F603FB17
:102CC00016001A9E06EB000C1B9EA6EB00000CFBE8
:102CD00007E61844A0F1010090FBF3F7189806FBF3
:102CE00009F6A0EB070005FB00F50698009500EB40
:102CF000860E4046504581463CD2002633E011986E
:102D0000002500EB8803704693ED000A20EE200AB0
:102D10001CE0002311E000BF00EB810C06E000BFC7
:102D2000F2EC011AB0EC011A01EE810A6045F7D30A
:102D3000DDF808C05B1C00EB8C00A342ECDB039BBE
:102D40006D1C00EB8300019B02EB8302BD42E0DBC4
:102D50000598761C00EB8803009808F1010883EDC4
:102D6000000A02EB80025E45C9D30EEB810E09F129
:102D70000100BFE708B0BDE8F08F000000000000D0
:102D80002DE9FF4F2DED020B82B0DDE914E8DDE9FE
:102D90001709119ADDF84CB000FB08F0199C50435C
:102DA000002703EB800A9EE06142002900DC00213D
:102DB000ABEB0403434500D34346661801FB02F026
:102DC000591AABEB0105564355430195A8EB010396
:102DD00002FB01F506990AEB8000534301EB8601E3
:102DE00000930026F0EE400A70E000BF002325F0BB
:102DF0000F0C58E091ED004AD0ED004AD1ED011AD8
:102E000090ED011A44EE840AD1ED023A90ED022AC7
:102E100091ED033AD0ED032AD0ED044A41EE210AA8
:102E200091ED054A90ED051AD1ED071A42EE230AFD
:102E3000D0ED063A90ED072A203042EE830A91ED5C
:102E4000043AD1ED062A203144EE830A41EE040A09
:102E500043EEA20AB1EC043A42EE210AB0EC041AA5
:102E600041EE030A90ED013A91ED021A41EEA30AF8
:102E7000D0ED001AD1ED013A42EE040A90ED024A7B
:102E800091ED032A42EEA40AD1ED004AD0ED032AC7
:102E900010301031103341EEA40A43EE230A44EE01
:102EA000010A42EE820A9C45A4DC06E0B0EC011A5D
:102EB0005B1CF1EC011A41EE210AAB42F6DB019BEF
:102EC000761C01EB8301009B00EB83004E458DDBFC
:102ED00005987F1CC0ED000A1299059800EB81004F
:102EE00005901A9804447745FFF45EAF08B0BDE83A
:102EF000F08F00002DE9FF4F89462DED028B8FB03A
:102F0000DDE92824DDE91EA6DDE92C01DDE92075D7
:102F10004843DDE926B1511A0E91BBF1010F01D1F1
:102F2000012805D0B34501D101286FD0002010E160
:102F300027992A98149A0844DDF850B0DDE9231344
:102F40006843A2F100625943B2F1807F9FED838A0A
:102F500000FB06F0139A01FB06F802EB8000CDF8A7
:102F600034A0CDF828900C9032D2002028E000BF89
:102F7000BAF1000F04D00D98B0EC010A0D9001E0F9
:102F8000B0EE480A259822AB0E990DF10C0C279A49
:102F9000CDE90840CDE9062193E8070000965B469D
:102FA0008CE80700CDE901750C9A0A991198FFF792
:102FB000E7FE0A980BEB880B001D0A9009F101004F
:102FC000B8428146D4D30FB0BDEC028BBDE8FF8F71
:102FD0004FEA8800FFF70CF80B90002036E0002045
:102FE0000AE000BF0B990BEB800292ED000A01EBA7
:102FF0008001401C81ED000A8045F3D8BAF1000F32
:1030000005D00D98B0EC010A0D9002E02AE0B0EE78
:10301000480A259822AB0E99279ACDE90840CDE9B8
:10302000062193E8070003AB009683E80700CDE98B
:1030300001750C9A1198DDE90A13FFF7A1FE0A98B1
:103040000BEB880B001D0A9009F10100B842814684
:10305000C5D30B980FB0BDEC028B04B0BDE8F04FA8
:10306000FEF79EBE002033E06042002800DC002016
:103070002B9A291B914200D311462A9A2318BAF1A0
:10308000000F02FB0532139B02FB06F203EB8202E8
:1030900001D0D44600E0CC46DDF89C800B1A0E9996
:1030A000CDF818800993CDE90710DDE92301CDE9BA
:1030B0000275CDE90401CDE900C6149B494611987B
:1030C000FFF706FD259809EB870904440BF1010081
:1030D000229983468842C7D375E76042002800DC06
:1030E00000202B9A291B914200D311462A9A2318BB
:1030F000BAF1000F02FB0532139B02FB06F203EB51
:10310000820E01D0524600E04A46DDF89CC00B1A00
:103110000E99CDE90A10CDF824C00C93DDE92331D6
:103120002C98DDF8B4C0CDF814C0CDF820B0CDE9AE
:103130000631CDE903508DE8C400149B7246119806
:103140004946FFF75DFD259809EB8709044408F11E
:103150000100229980468842BFD334E70000000076
:103160002DE9F0478246089D25F00100EC0803EBAD
:1031700080069FED460A5AE051F8040BD3ED001A81
:1031800000F0FF0C0CF00F084FEA1C1793ED014AFA
:1031900002EB870CC0F30729DCED000A02EB880C78
:1031A0004FEA191700EEA10A9CED001A02EB870CFA
:1031B00093ED025ADCED000A09F00F0801EE040A53
:1031C00002EB880C93ED033ADCED002AC0F30747CD
:1031D000D3ED044A00EE850A4FEA171807F00F07EF
:1031E00002EB880C02EB87079CED002A02EE830AB3
:1031F000000ED3ED053AD7ED001A4FEA101C00F08F
:103200000F0702EE240A02EB8C0093ED064A90EDC4
:10321000001A02EB870093ED075A01EEA30AD0EDE6
:10322000000A2033641E01EE040A00EE850A002C19
:10323000A2D115E011F8010B93ED002A93ED011ACC
:10324000040900F00F0002EB840402EB8000D4EDCF
:10325000001AD0ED000A083301EE820A00EE810A5E
:10326000B342E7D3E80709D0087893ED001A0009C4
:1032700002EB8000D0ED000A00EE810ADAED000AD0
:1032800030EE800A8AED000ABDE8F08700000000F9
:10329000F0B59FED3D0A059D03EB8504103C05F05C
:1032A000030527E00E7893ED001A4F7802EB8606AF
:1032B000D3ED012AD6ED000A02EB870611F802CF02
:1032C00000EE810A96ED001A02EB8C0791F801C01E
:1032D00093ED022AD7ED000A02EB8C0601EE220ADA
:1032E000D3ED031A891C103300EE820AD6ED000AD2
:1032F00000EEA10AA342D5D915B3012D04D0022DA9
:103300000CD0032D38D11CE0097893ED001A02EBA4
:103310008101D1ED000A00EE810A2DE00C78D3ED99
:10332000001A497802EB8404D3ED010A94ED001AE7
:1033300002EB810101EE210A91ED001A01EE200A53
:103340001AE00C7893ED002A4D7802EB840489781A
:1033500093ED011AD4ED001A02EB850402EB810112
:1033600001EE820A94ED002AD3ED020AD1ED001A93
:1033700002EE010A01EEA00AD0ED000A30EE800A4A
:1033800080ED000AF0BD000000000000F0B5042B45
:10339000DDE9055400EB840427D0082B27D12FE06A
:1033A0006E08002312E00F783F0902EB870797EDC4
:1033B000000A80ED000A11F8017B07F00F0702EB0D
:1033C000870797ED000A80ED010A0830B34203F148
:1033D0000103E8D3EB0708D011F8013B1B0902EB0E
:1033E000830393ED000AA0EC010AA042D8D3F0BDFC
:1033F00011F8013B02EB830393ED000AA0EC010AF4
:10340000A042F5D3F0BD10B5016904468847E068D5
:10341000A04200D1002010BD70B5856D0446016D3D
:10342000ADB1002912D001206165E26DA8470220EC
:10343000E26D616DA847606DFFF7E5FF01466065CD
:103440000320E26DA847606D0028F0D170BD00290F
:10345000FCD06165606DFFF7D6FF00286065F9D18B
:1034600070BD00004FEA102231B11346C0B20246CF
:1034700004A0FEF7E5FB03E0C1B20FA0FEF7E0FBFE
:10348000FEE7000054454D504C415445202D204549
:1034900072726F722028257329202D20747970652F
:1034A0003D30782530327820636F64653D30782573
:1034B0003032780D0A00000054454D504C415445BF
:1034C000202D204572726F72202D20747970653D19
:1034D00030782530327820636F64653D3078253050
:1034E00032780D0A000000001CB500230322CDE94C
:1034F0000023024A012300F0D3F81CBD84060020FB
:10350000004870470447000800F000B930B59DB08E
:103510000C46054600F0ACF8FCB1F0B1104974223D
:103520006846FCF7B8FE00F08FF9049000F094F9BB
:10353000059000F093F8099000F0A8F869460A9009
:10354000284600F02DF8002805D074226946204650
:10355000FCF7A1FE01201DB030BD0020FBE70000FC
:10356000904600082DE9F0410D46064600F0DCF8D3
:10357000040010D0294600F019FE05F11801074695
:10358000204600F0D9FD00EA0704304600F00BF9B0
:103590002040BDE8F0810020FBE700F024B90000E6
:1035A00070B50C4600F064F805000DD064B1002041
:1035B000E066286D50B1E16E491CE166C168814248
:1035C00004D019B10846F6E7002070BDE06E80B166
:1035D000B5F8480000B1E86C04F13401FEF75AFD7B
:1035E000208648B1B5F84800012808D9E86C0C30AD
:1035F00006E0182211212AE01822122127E00020DB
:1036000004F13801FEF746FD6086F0B168681822C3
:1036100005F13001206704F13C00FCF73CFE182264
:1036200005F1180104F15400FCF735FEFCF7C2FE69
:103630000948206100F010F9606100F00FF8606245
:1036400000F024F8A062012070BD18221321284642
:1036500000F0F4F8B8E7000054380008034810B54B
:103660000469FCF7A7FE204610BD00007C0B04088F
:1036700010B518B1044A0168914200D000200446F8
:10368000FCF798FE204610BD0001C0A1034810B50C
:103690004469FCF78FFE204610BD00007C0B040837
:1036A0002DE9F843054691461A064FF00008DDE97A
:1036B0000810444642EA014141EA0027FCF77AFE3D
:1036C0000F4E65B10F49C9F80010C5F8009000F021
:1036D000E0F838B1B7F1827F06D974680CE0F06980
:1036E000BDE8F883346807E007A0006800906846EA
:1036F000FFF7D8F910B9B468C5F800802046EFE7A5
:103700007C0B04080001C0A10384048410B5FFF7FA
:10371000AFFF20B1BDE81040103000F0B4B8014850
:10372000806910BD7C0B040870B50C46FFF7A0FF44
:10373000050004D02CB1A16A206929B10CE0002059
:1037400070BD1122102111E0218CE28B636A51437C
:10375000594301D0132207E058B92089E188E26873
:103760004843504305D012222846102100F066F845
:10377000E5E71822214605F11800FCF78CFD182218
:1037800004F1180105F13000FCF785FD0320E86025
:10379000286D30B1C1688560814202D009B1084608
:1037A000F8E7284670BD70B5FFF762FF041E08D029
:1037B000207B800706D410222046112100F03EF81D
:1037C000002070BDA06D60B1256D55B1D4E91632F1
:1037D000002029469847E868A84202D008B105466B
:1037E000F4E7012070BD70B515460E46FFF740FFA7
:1037F00004462A463146FEF7A2FC00281DD0B4F844
:10380000480008B1E66C00E00026012802D9E56C0A
:103810000C350DE000250BE03046FEF7B7FD2046E5
:10382000FFF7FAFD2846FEF7E7FDE08A401CE0823C
:10383000E08AA18A8842EFD380B270BD002802D00E
:10384000103000F03EB8704710B5FCF7B3FD01A092
:1038500010BD000000000000034810B5C468FCF76C
:10386000A9FD204610BD00007C0B0408016802463B
:103870000120090A04E05368491E53F821305843D7
:103880000029F8D1704701680022027002600846E2
:1038900070470120704720B18069D0E90001FFF72F
:1038A00016B80120704710B180698068704709B16F
:1038B0008868704700207047002801D04069806800
:1038C0007047037813F0FF0F01D00020704701709C
:1038D000016862F31F210160012070472DE9F04F5C
:1038E00004464069BDB0018809B1426800E0002289
:1038F00052682AB109B1426800E000225268126899
:103900000129914602D942680C3200E00022526837
:103910003AB1012902D942680C3200E00022526813
:1039200012680229099202D94268183200E0002286
:10393000526842B1022902D94268183200E00022DE
:103940005268156800E0002502290BD9426812F17F
:10395000180F07D032F8183F012B03D9526812B163
:10396000526800E000220229934602D942681832C8
:1039700000E00022526842B1022902D940681830A2
:1039800000E000204068866800E000260999A06BEE
:10399000BBF1000FA28C238DD1F80CE092B2078806
:1039A000B0F804C00189DEF804A01A9289B2B0F818
:1039B0000C8098B2A28D2690B8B2238E92B2089055
:1039C0001FFA8CF0D9F818703690D9F80C900C9139
:1039D0001FFA88F1D5F818C00B91E9682992226D79
:1039E000D9F804001E9098B22590B86819904868DC
:1039F0001C9088681B9010680A9050683A90DCF818
:103A000008000790DEF80C002C90DEF808002A90E1
:103A1000D9F80C002390D9F808002090A0692B90C9
:103A2000E06B3890606C3790A06C179003D0DBF897
:103A30001800806800E000202F90E1693046FFF711
:103A400032FF074624903046FFF736FF3590304668
:103A5000FFF721FF3B90206A00B9BF48A969299E62
:103A60008846259A761E0968521E1F90606D349014
:103A7000C1F3C6131B9D206CAC4614906D1E002034
:103A800005FB02C2239D2192AD1A089A15440C9A97
:103A90001544269AB5FBF2F21C9DAC466D1E05FB43
:103AA00006C5C1F341562295C1F3434C209902F15A
:103AB000010B369A491B0A440B99F3400A441A99A0
:103AC000BCF1040FB2FBF1F102D0BCF1080F24D11C
:103AD000D8F80C200AB361690D88032D02D94E680D
:103AE000243600E0002676685EB1032D02D94868CE
:103AF000243000E000204068406810B181698D6882
:103B000000E0002581691E984968CDE90001D8F8D8
:103B100008102846FFF73AFC05B9079D099A0A984C
:103B2000616900B2926981461895CDE9272000228B
:103B3000CDE92D220888032802D94A68243200E002
:103B40000022526842B1032802D94868243000E0BC
:103B500000204068056800E0002508984042AA69F6
:103B6000E96816909468D1F80880E6E0BBF1000F90
:103B70005BDD1698369940420028C1F1000E00DC4A
:103B80000020169A2399891A219A914200D311464E
:103B9000259ADDF858C016B2299ACDF830C013B274
:103BA000229A0F96CDE90D2309AB2B9A089283E850
:103BB00003401AAB93E80700CDE90610CDE9048273
:103BC000209821461E9A2F9BCDE902A0CDE9003214
:103BD0000020DDE91832FFF78DF900261CE0A86906
:103BE0003B4652468460A869DDF87CC00146E04748
:103BF00035983B9907442498381A884200DB249F63
:103C000004EB8A04A8694168C26802EB8100A04203
:103C100001D8A4EB8104761C4645E0D3A86909F1DC
:103C200001010FFA81F9C1688160ABF101005FEA1F
:103C3000000B3DD50AFB08F0AA69234600FB09F0FA
:103C4000D168A4EB8000814202D9526800EB820067
:103C5000814210D214990AB2914505D10BE000BF00
:103C6000B0EC010AA4EC010AA969CA68496802EB30
:103C700081018142F4D8179AA969149802FB08F2CD
:103C8000A0EB09062E98179C02FB0AF20644C868AE
:103C900049684C440FFA84F936B22E9603EB82043D
:103CA00000EB810002E000BFA4EB8104A042FBD93D
:103CB000149881453DD32D9805AE17990123401CDA
:103CC0002D90A9EB0100279A0FFA80F92A9881B26A
:103CD0001798089280B286E80B00379802AE2899B0
:103CE00082B23A98149B89B280B29BB2019386E863
:103CF000070038981FFA8AF32E9980B20090149822
:103D0000349E411AA8698AB21FFA88F1B0472A98EE
:103D10000AFB00F127988368179803EB810102B230
:103D20002898801A279A0028916000DC002000B2B1
:103D300028902699169808441690DDE92C018142B6
:103D4000FFF414AFA869C168816027982799C068FB
:103D500088603DB0BDE8F08F094000082DE9F04FC4
:103D60002DED028B91B04069018809B1426800E0F5
:103D7000002252682AB109B1426800E0002252686C
:103D80001268012902D943680C3300E000235B6804
:103D90003BB1012902D943680C3300E000235B6882
:103DA0001B68022902D94468183400E000246468C2
:103DB0003CB1022902D94468183400E00024646848
:103DC00024680229A0460BD9406810F1180F07D0CB
:103DD00030F8181F012903D9406810B1406800E08D
:103DE0000020D468D9680A906068059048680790F8
:103DF000D1E9020100FB01FBD8F818100020069061
:103E00000868C0F3C614C0F34155C0F34340EC400A
:103E100004280F9401D0082801D1C86806909B6936
:103E2000D8F81410926907989C68D1F804A004EBA4
:103E3000800790689FED2C8A039000204CE000BF23
:103E4000D8F818100A988E6810B18069856800E06B
:103E500000250698C0B91DE015B1B5EC010A01E0D6
:103E6000B0EE480A0F9831468DED0B0A039B0428EB
:103E70000598069A00900BA809D0FFF709FA9DED66
:103E80000B0A5644A4EC010ABC42E5D31AE0FFF742
:103E900067F9F4E703980B9012E015B1B5EC010A4D
:103EA00001E0B0EE480A8DED000A059B31460B9A01
:103EB0006846FDF7F9FE9DED000A5644A4EC010AA0
:103EC000BC42EAD30599039800EB81000390079860
:103ED00007EB800709F1010058458146B0D311B0C6
:103EE000BDEC028BBDE8F08F0000000070B5054608
:103EF0004069018809B1426800E00022526832B18D
:103F000009B1426800E000225268146800E0002411
:103F1000012902D942680C3200E00022526842B105
:103F2000012902D940680C3000E000204068066892
:103F300000E00026A86978B14068012804F1080073
:103F400016D0FFF793FC0246A869A1698368B0699F
:103F5000BDE8704000F0C0B904F10800FFF786FC2E
:103F6000A1690246B0690023BDE8704000F09AB92B
:103F7000FFF77CFC0246A869A1698368B069BDE8C7
:103F8000704000F009BA2DE9FC414069018809B18F
:103F9000426800E00022526832B109B1426800E094
:103FA00000225268146800E00024012902D9426806
:103FB0000C3200E00022526842B1012902D9406867
:103FC0000C3000E000204068056800E00025E16852
:103FD000E8684E68476804F10800FFF747FCCDE940
:103FE0000067A1690246A869334600F0F7F9BDE809
:103FF000FC8100000349CA695206FCD5C2B28A623C
:104000007047000000100140704700002DE9F041AA
:104010000B3020F00706104D19E02068B04215D390
:10402000B0420AD9871B201DD4F80480FCF733F96D
:10403000A019C0E90078286004E060682860201DAD
:10404000FCF729F9201D2660BDE8F081251D2C68AC
:10405000002CE2D10020F7E7B00A002008B5BFF33A
:104060004F8FBFF36F8F2D4800240460BFF34F8F35
:10407000BFF36F8F2A49086840F400300860BFF32F
:104080004F8FBFF36F8F264870300460BFF34F8FA0
:10409000001F43F6FF7C0068204D1035C0F34E3200
:1040A000C0F3C9030CEA4216184600BF46EA8077FF
:1040B0002F60401EFAD2521EF4D2BFF34F8F086811
:1040C00040F480300860BFF34F8FBFF36F8FFCF771
:1040D00045FBFDF719FB1348016841F00101016040
:1040E00000680121104A00F0010000900F480260B2
:1040F00004714471446184610162FCF7D3F908B131
:1041000072B6FEE7FDF76CFAFDF786FA08A0FDF738
:1041100097FD00BFFDF79EFAFCE7000050EF00E0BE
:1041200014ED00E030380240003002403831002009
:10413000746573740D0A0000F0B5086900221A4D09
:10414000C01C20F0030005F1100700F59F51A96085
:1041500005F1C004E960B96004F11006F96004F1EA
:104160002003A26000F5C071E260F035B160403418
:10417000F16000F5C8619860D8603033A960E960EB
:104180003035A06000F5F071E06030349960D9609E
:10419000A860E86000F5A870A060E06003F130005E
:1041A0008260C2600120F0BD34050020F0B5384EB9
:1041B000086906F11002374F02F11003364DD6F8A8
:1041C00000C0074402F12004DFF8D0E04CF0804C3E
:1041D000C6F800C000F5713CC6F808C0C6F80CC0AF
:1041E0000544D2F800C002F13001976000EB0E06E2
:1041F0004CF0804CC2F800C0D7604032D3F800C009
:104200009D604CF0804CC3F800C0DD6042F6300584
:10421000D4F800C04033A66005444CF0804CC4F88C
:1042200000C01F4FE66042F2F076D1F800C00744AC
:104230008F6040344CF0804CC1F800C0CF60064421
:10424000176800F51C71956000F5167C47F08047F3
:104250001760D56030321D689E60DE6045F0804595
:104260001D6030332568A16045F080452560E16020
:104270001168C2F808C0C2F80CC041F0804111605A
:104280001968986041F080411960D8600120F0BD44
:1042900054050020E0B6030090B503001018030099
:1042A0003016030030B58D686FF00303846803EBAC
:1042B0008202A8189FED070A224407E0D0ED000A09
:1042C000001FC0FE200AC2ED000A121F8B68834245
:1042D000F4D930BD0000000030B5D3ED021A8D686E
:1042E0006FF0030493ED000A93ED011AF5EEC01A86
:1042F00004EB820480682A19F1EE10FA204444D2BB
:10430000B5EEC01AF1EE10FA0FD112E0D2ED000AAC
:10431000F4EEC00AF1EE10FA03D270EEC00A60EEBD
:10432000810AC0ED000A001F121F8B689342EDD96D
:1043300030BD9FED181A0CE0D2ED000AF4EEC00A71
:10434000F1EE10FA01D2F0EE410AC0ED000A001FB2
:10435000121F8B689342EFD930BD00BFD2ED000A27
:10436000F4EEE10AF1EE10FA09D2F4EEC00AF1EE31
:1043700010FA06D270EEC00A60EE810A01E0F0EE9B
:10438000610AC0ED000A001F121F8B689342E5D935
:1043900030BD00000000000070B58E686FF00304AF
:1043A000856804EB8202B0189FED0B1AD3ED000A6A
:1043B0002A440CE090ED000AB4EEE00AF1EE10FAA7
:1043C00001D2B0EE410A001F82ED000A121F8B6875
:1043D0008342EFD970BD0000000000002DE9F047D6
:1043E0000C46896806468068DDE9089801EB820181
:1043F0009A4600EB8202A1EB8905A2EB88070BE04D
:10440000A5600023524621463046B76000F00CF804
:10441000A5EB8905A7EB8807E068A842F0D9A06062
:10442000F068B060BDE8F0872DE9F04115462DED4C
:10443000028B8E6887680120DFED1C8A96ED008A6A
:1044400007E000BF06EB8001401C91ED000A88FEEA
:10445000008AA842F6D300240FE000BF06EB8400D8
:1044600090ED000A30EE480AFDF7C8FC70EE288A8D
:1044700007EB8400641C80ED000AAC42EED3F7EE3B
:10448000000A002080EEA80A09E000BF07EB8001C7
:10449000401CD1ED000A60EE800AC1ED000AA8427E
:1044A000F4D3BDEC028BBDE8F081000000000000F9
:1044B0002DE9FF4F84B0DDE9175BDDE9159E149A05
:1044C000ABF10101199E01FB0EF1B6688A1A12992F
:1044D0000A440699541A691EDDE9137201FB09F1B9
:1044E000A4F10104009624B23A43DFED580AD0F853
:1044F00008801398A1EB0001119801440598A1EBE5
:104500000000A0F1010000B24AD1002848DA002CD6
:1045100046DA00213FE0129801FB0E000FFA80FA04
:10452000002034E0119A002400FB092217B22AE08F
:1045300001FB0EF600FB09F236B212B20192B0EEA8
:10454000600A13E0019A0DE0DDF814C006FB0C2CA4
:10455000521C12B203FB0C4C08EB8C0C9CED001AA5
:1045600080FE010ABA42EFDB761C36B25645E9DB23
:1045700001FB050203FB0246009A641C24B202EB15
:10458000860282ED000A9C42D2DB401C00B2A842A7
:10459000C8DB491C09B25945BDDB08B0BDE8F08F46
:1045A000002450E004FB0EF01499401A0390129975
:1045B000002208440FFA80FA41E000BF02FB09F034
:1045C0001399401A029011990026084407B232E06C
:1045D0000398B0EE600A01B2029800B201901DE0AB
:1045E000019817E0002913DB002811DBDDF818C063
:1045F00061450DDADDF814C0604509DA01FB0C0CE9
:1046000003FB0C6C08EB8C0C9CED001A80FE010A7D
:10461000401C00B2B842E5DB491C09B25145DFDB62
:1046200004FB052003FB00610098761C36B200EB0A
:10463000810080ED000A9E42CADB521C12B2AA42DF
:10464000BCDB641C24B25C45ACDBA6E7000000CFF9
:1046500004000000D8020020040000003003002005
:10466000040000007403002004000000B4030020D4
:1046700004000000F80300200400000038040020BB
:10468000040000007C04002004000000BC040020A2
:10469000300C04080C0C0408F00B0408D80B0408B8
:1046A0000000000000000000CC0B04080502000020
:1046B000010300000000000000000000C08D0600A3
:1046C00000000000000000000000000000000000EA
:1046D00000000000000000000000000000000000DA
:1046E00000000000000000000000000000000000CA
:1046F00000000000000000000000000000000000BA
:1047000000000000E2904E3BA5014F3DE5CC103E7D
:1047100045D34BBEF5C435BE430E8B3E24AE593E49
:1047200062F853BDBDA2C3BE9CD171BEACCCCB3D23
:10473000B1D4843E25A2DF3CD67668BEC93A8BBE92
:10474000D0F16C3EA43962BC32F1D4BDCA45DD3D26
:104750002D4002BE9A203B3E4A1E153E2D47513D3C
:104760009183533EA0578C3AB771EEBD92039D3DA5
:10477000F4DC87BE25E842BE60054BBE77A1013D53
:104780003CB5D03ECABABC3EAC3642BE3D561CBD5E
:10479000D0F7643E0CC1733DFFACD83E2DB85E3EF1
:1047A000A7EA233E24C693BEEE4BF7BD24C93B3E89
:1047B000E817683E1BBC173EBD0AA7BD100A943D12
:1047C0001EFCD83C4B42A53D5677303D4DF1A63DF1
:1047D000E0F13F3E03C88D3EB218CB3E8E06853ECB
:1047E000941C1C3EE6C48D3ED8B72D3E538B983E9C
:1047F0002D71993E4FB208BE6EDD803DDE590FBE71
:10480000676527BDFA49373E1F3789BE39E79EBE27
:10481000E79582BE50D278BE4539EB3D5B7197BEBD
:10482000770EADBE97DEC0BEAD139ABE09296DBE30
:10483000E64D553D7FF7A33E266AC43E1597C33D1E
:10484000044CD8BD05398B3D68D4A23DDE23A6BEFD
:10485000D1FAD3BEAD161EBE59285BBEA7C1FEBE9F
:10486000AD8E06BFB2FE3CBEA3CE353DB43802BE0F
:10487000840D9BBE98B1C7BD1F85B13EAA3E8B3E3D
:104880003F9F683EDF228A3E9446D73E4D97A83E22
:10489000C87283BD5A24F3BD5BF99C3D1B15613E74
:1048A00012AEE83D393F303E8187D8BD58203C3EAE
:1048B00072AC7B3ECAE18D3D8801E6BD7BA1363EF0
:1048C000E24B8B3C8C16813EAEB3023E0011F2BE31
:1048D0002009003CBA10463E43696E3ED4E868BEEB
:1048E000DB34FEBE9C794FBD9020383E1BCCFD3D95
:1048F000FD188BBE967C94BE9189043E30AE083E76
:10490000A75C163E19640BBE8DACE8BDBDFCB4BE01
:10491000FC1421BEC2310F3E416D8B3E346A513DC5
:1049200067A584BE7B9A163D4BDD283E0C42063EB1
:104930000D4337BE6FB676BC02274D3E1504393E97
:104940006C61B83D547186BEEF4514BEF1F95D3E11
:1049500001123BBE7148153E3070103E546681BC5A
:104960005A0AA4BDEBB69B3D0E0245BC7D2273BD29
:10497000D146BEBDECB3CC3D250859BEC6C393BDE0
:1049800091F0D8BDCFC6A2BD21DA123D3893313D9A
:1049900077C3DDBD04948EBDF07F84BD85A3D6BDF5
:1049A000D8944DBE01FB2CBE6CE1C7BD7896033C8C
:1049B0004260493DCE68CCBD6CA6953DD1B3A43DC7
:1049C000C2809DBC5CB3193D802B8EBD7F55CBBC96
:1049D0002FEA5B3DC3B4D43D0164ECBC147B4E3E76
:1049E0007540BEBDC67545BD05C1AD3DCCA8C03C3A
:1049F000E7E9D73D89A25BBD05DF093E4A16A7BCA2
:104A0000C0E43B3D472DF13CE319C63D73E77EBE54
:104A1000C498503E73FED0BCF8D1EDBCB4C9BEBD45
:104A2000E925C3BD01A605BE4D42543E0C97B53DD8
:104A300008C8083EFC89C43D92B002BEE853333D2D
:104A4000EE4FF73DDFC29F3D6EABFABD0023C2BD06
:104A5000AFFA05BE5459EB3DACCB5DBEFD70B3BDA6
:104A6000FFD101BE8F99933D56EC363E0D09ADBD89
:104A7000721018BD62562DBE15390C3EA9C2BEBDBE
:104A80005DADF63D9A3044BE94673DBE2245963DED
:104A900097B2DF3D1D900CBCC712033E69D048BDE4
:104AA0000B773B3D1C39B9BD145F1CBEB333093EC7
:104AB000775A293E0C0D9BBEBB3FD23DFE26AF3D33
:104AC0003486B6BB3DF1283D85AA5BBE633159BD36
:104AD0003A3B06BE70F4063EF65129BEDA8E91BD11
:104AE00049CBB53B7A843E3CFEADE4BD59BA83BDAB
:104AF000267B543D4FB29B3B7B33F43D528B45BEEE
:104B0000B29ECC3D90370B3E936AC43D1145C6BD65
:104B1000176BAD3DC290FCBD4918A13D33943CBD1F
:104B2000E83E0EBE8E889B3D2007A43D8BB0473DDE
:104B3000CCB28FBED4148DBDC449043D66C95A3E63
:104B40003532253E5A1C70BEB06C6CBE986F3DBEAF
:104B5000FF7FE43D7A50E5BDE8D43D3EB741BEBDA0
:104B6000C6B8583DD7CB87BD86C86ABD6DF69BBD1C
:104B700092C637BD91D320BD3F8EEB3D8D0212BC56
:104B8000B5980D3E3106C63D44F21EBE5E74F7BDBB
:104B90009CF545BC9DF00F3D7432383DA02E07BEFC
:104BA0004B22C9BDC84A153EBB13DD3D6987C13DD7
:104BB000241F123DAD31A73DFEBE353E09AC063E79
:104BC000AA37593DE543BABDB746493E6EB3843A6C
:104BD0001C467B3C1672F8BD12D34A3E8B4BA33D5C
:104BE000731A0C3E251C93BD6F02223EC5C39DBDAA
:104BF00047DD043E6DBFA4BDB5E1693DE12EE9BDD1
:104C0000FE3CA03D355F07BEFB3311BC0A72A73CDA
:104C1000C058103EEAEF40BDA89B94BD6D758FBC97
:104C2000309E8FBD5DF1D73CC6651DBD9F31263DD1
:104C30009D09F9BC29F655BEE14F2C3D4FDC97BDCF
:104C40008EB8CEBC8EF6ECBD3AC8C13B36EA6D3D9F
:104C5000A98B11BE92DE77BC74DF3B3E3306B03DBC
:104C600047270E3EAA2848BDB96F3FBDA4FE61BAD2
:104C700098138A3DE5EAADBCDC710B3EECEEE7BB78
:104C8000D25C0D3E52CD513BD019493D105890BDDC
:104C9000CF1D263E2BB682BEA96E393E8397F63CC9
:104CA0008FDDA43C5D5DC13D947C5CBC6F6E2FBE0E
:104CB000CA46983B1C5701BAC3C1283E76A0853D21
:104CC000F476BEBD7E8BE8BDEA7DE0BD80C1C13D0E
:104CD0005839933CF296A23DEE4F87BB6354D23DC8
:104CE0003CB9583A9A9966BDCC79D13C313097BDE0
:104CF000A69DBABC546D443EB5773E3EA03324BD5C
:104D0000F5E3003E10B7813BF4AA033E83C99ABD88
:104D10005B72293E1A2E80BDB6B3053ED95B2DBD10
:104D20001BBE43BDDE7412BD58DBBBBDE580073E34
:104D3000D19F0DBD8C91FB3CF7EEF0BC40BFF6BDA2
:104D4000146A66BD28BCB63C9D91BDBC3031EF3ABB
:104D50002B7591BD902C00BD1E77BEBDAE8927BEC0
:104D6000E61CBABD24E0DFBD06B5BA3D27CA443E05
:104D70004D70EDBDE3B879BDDB74423DB84F3ABE2E
:104D800068CB52BDD040FC3D48D2853DC53B95BE69
:104D90003AA78E3D2BEFBEBD7F9498BD491AD83DF2
:104DA0003962BA3D6D37CCBD249BC83BE96592BDE5
:104DB0005A8484BD6131763C7EECDA3D6F27CD3D6F
:104DC0008FE7853DBF09123DF24413BE90F9803B49
:104DD00049CE4B3EC7E33DBC365EC1BC6EC879BE12
:104DE00061AB5EBEAE21FDBD6D3EA83EFE9999BD94
:104DF000F742A5BD485579BEDC6371BDA20B963C58
:104E000001EFB63E06C4B9BDD4F9B5BDFBDDAFBCFC
:104E1000E5434CBE24490ABECA96CD3D8B5B0DBE10
:104E200025BF843D928C04BE0909E5BCAE24843ABA
:104E300000B122BE2C060DBE4A67E4BC9EF77FBDC2
:104E40008D2D6E3C7E8291BDE9AFC13DB97F6CBEB8
:104E50009F4938BD53F40BBD1D4FFC3D44DA053E60
:104E6000D21251BD7DFEE9BDE049963D071E9BBDB6
:104E700053DDE13D67A386BC7626FCBD1D7661BC93
:104E80007260073C5D92003D0AAC083ECD8104BED5
:104E9000640CC43C8768513D343A14BE7E289E3D64
:104EA000F27C0D3DB16DBB3D7B1D1E3D92F7153E65
:104EB000D28DEFBC7CF23CBEE4B3F9BCE959373E7D
:104EC0005E4D47BD71B242BE85E33DBE204171BE1D
:104ED0007003213D00DD89BDBC834B3E19EB50BE04
:104EE0009D35C7BDFF43363D129D0B3EC89689BD1B
:104EF000A58072BC8FBCBE3D3E1DF73DFC49923B78
:104F0000F6C3AC3D5D09A5BD85886E3D1D60F23DD3
:104F100019530B3E31692B3EFB7201BDCB49A13DBC
:104F2000756A54BE3713A53D9025B6BDF9A146BE9E
:104F30005AFAA4BD4F91283CFEA5643EFFDEB2BEE6
:104F4000F7E455BEBE35B4BE33E3D23BEED4AEBEBD
:104F500008DF623E07E3ED3DA3A91B3E52273B3E1F
:104F6000BCD0CBBC2E8300BE49BCC7BC9D30003E2C
:104F7000C44F053EB995E43D6D7BA0BDBED0E03C7D
:104F80000D9C04BE380C4E3E3CA206BD68B9C63D21
:104F9000CED565BC81DE413D1DAA5E3DC9A33DBEA7
:104FA0003FC89CBB92E6C9BEFA87EE3D39FD67BE9D
:104FB000D28E803E18DDE1BDFE068BBDC44B6CBDBC
:104FC000CDD99FBCB5D33CBE8D20F4BD9F65623E5C
:104FD000E9E8083E96FF4C3EE2B233BD023EE3BC38
:104FE0001262C33D4C1D593E73B3A3BC81CFB1BC0B
:104FF00045BB44BDF60F823D8ED146BD7F7EF23B60
:10500000A32E163C2A3CAFBE225BA63D95F2CEBC39
:10501000A6C4E33DCFEA1EBE2CCC06BDB9417CBD83
:10502000C16883BDA7E405BED48C58BE58C3E73D14
:10503000E058CD3DE7CFD83DFC71FABBB3DC06BCF0
:105040001DD4E13DA0F4FA3B2E1CD33CC9CEA53DB6
:10505000C71221BE1C39723C8F126EBD076C24BD75
:1050600004FEDFBD3641B53C146B77BECC742D3EDB
:10507000960263BD68D690BD2C6EE33C8BA76DBDD8
:105080009E696BBDD21CB1BD849E5ABEA1ED803D10
:105090001705A6BC7A6648BDAD0858BC45B175BDBC
:1050A0007CE0EA3C1A97263D2AF37D3DE0BC133EA6
:1050B00015AA6CBDBD6506BD6FD78EBEBE462C3E23
:1050C000CB4BAF3C0FFC0ABC7DD142BE846428BDF3
:1050D000C83305BE8E72943BF9FED3BD49011E3E16
:1050E00007CEFC3DEA6354BE94528E3C49388F3E55
:1050F000BB09AA3D192A14BD23080E3EDE855B3B81
:10510000BD77123E4B5202BE62F1B2BB8ECBD33D95
:10511000004E933D5FCC163E8E9F98B88E81223E06
:10512000D7406E3E3C971C3ECB02CABD8AC1B8BC7C
:105130006B3299BE03971E3EA56980BD637A4B3DD5
:10514000D1A3EEBD0C1C0ABE58195FBE54AEECBD17
:1051500049A298BDE504FB3BF8A5F13DEE7FDEBE1C
:105160004E70C6BCF63F1F3D43BB0DBC2A6A0DBD49
:105170008B4FBABDD7D24C3D22B6663D89AFBC3D00
:10518000734FFF3D9E8A783ED2901ABEB21393BDF4
:10519000FF9734BE3BB9513B27A854BDBC14083E11
:1051A000AF5BCE3B064112BEAA71083EC24AD4BDD7
:1051B00099E48DBC4DCA2EBEE244B5BBA8BF83BEE8
:1051C00096248B3E059EBFBDBC0EA1BD63A1E5BC70
:1051D00074F1193ECEF402BF9A7F523EA3073DBB45
:1051E00094F58B3E2AC1AF3C7B9CA9BDB72F01BE75
:1051F00099BA753E234160BDDC3AA93D6A283E3D1F
:105200002260393D74D11CBE9FBF8F3EE6D018BED0
:105210002B0D2DBE342C78BE5749353EF8C5DBBE6C
:105220006ED9AB3E2D7CB5BDA334A23D5A700BBDEB
:105230006C36A93DB4A09BBE5E2B603ECCF8DC3D35
:105240007EAE1C3E9A3210BDE6D1113CB5E434BDB1
:1052500044E1493D384B583D7DBD953D9527DFBD27
:105260002770B1BB5F5783BE9054E3BDE0D2D13D00
:105270001A4D2DBEE27908BEA2663B3E074E05BD23
:105280004706423E159B1EBE39A4243E1C7337BE02
:10529000331BF33D21ED3DBC6F5F08BDE3D75E3DA1
:1052A00047E1703DCA42DE3D33F86C3C14E1F23D0B
:1052B0007909F9BD4059A43C07AE95BDA07FFDBB5F
:1052C00066230F3D221040BD8184DA3DC65B50BB92
:1052D000D44F41BED1D426BE1E625BBDFA1D28BC90
:1052E000A6FD04BE1D4282BDC26E0EBD4C93E7BC3E
:1052F000187C823D85F77BBE31556FBDF1C9EB3D12
:1053000076D4DD3D6A0FCC3D19D329BE6DA184BE94
:10531000CC612BBE1C570B3EE3AC553E37DCFC3D4D
:105320005B4BA0BE0BA795BD98B8F7BDC52165BD69
:105330003F82BCBDE7023DBDB18F1BBE6D9D013EEE
:10534000AD819CBE8435E5BBD95CB5BD66E55BBE71
:10535000859EC03C795B19BE1E10D63DBB8491BEB4
:1053600010554CBE88F422BD182CF03C1F3FDCBE0B
:105370007DB833BE04A0F73CFD87773E91114A3ECD
:105380007376313CB20FABBE071A323E5900DABC1D
:10539000A8B520BD74ED0B3E83185DBD632215BE1C
:1053A0000AE4ED3D5E2767BD2BADC0BD11B6B53D2E
:1053B00097E7D5BD5EE5C2BAE55C923D75AF79BDB4
:1053C0009736E8BD7FD623BEADA9D33D152F5CBE71
:1053D0009070A03DB17C8DBEDFF1503DE566193D7A
:1053E0001E3ECB3D119207BE308C1BBEB7D001BE16
:1053F000035DA23C30FD1D3E17AE5C3E213125BE53
:105400000CFDB93DB8559B3D1C0403BE72F630BD82
:10541000EAD0923CB9FB0F3C48520C3D5BE982BD9F
:1054200022D9CCBCCA38063ED76F203E886F29BE31
:10543000BDFEFD3B4AF4163D6C0A1E3BB93A93BED5
:10544000AF22063E774A2A3C59925CBE43889A3D79
:10545000C4D3883D70001D3CC60207BDAFD0353EA9
:105460002B71DFBEDA812F3DD5C50F3D9D2700BDD5
:10547000BB46543D3A70473EB131F5BD743EAD3D3B
:10548000A01BDFBDCDD3A43CC82E163E84F6683EDB
:105490008B8FA33D83A52DBDA6EFE2BDB00BC23D12
:1054A000413A903D8B125F3E7BE1483DD0F8603D34
:1054B00009BBDE3DB18A8FBE197E1B3DA50839BDF3
:1054C0006BDA55BDC170FC3D448E243CF79A403EDA
:1054D000793C02BE628BECBD59DF02BF59AA983DF0
:1054E000DBC5C8BD53DA50BD9AD199BD5D7D61BDA4
:1054F0005A9119BEAA7AF5BD00DEC9BD5D4436BD1C
:10550000837469BDCCAADCBCE6BC9ABC11492D3CB5
:10551000729229BDB437C9BCD4A47BBE63C2D73B49
:105520005B13723E35CF1F3CEC8321BD4FDBF63D54
:10553000F93299BD2B736FBEA49C913D4C375F3DF2
:105540001A4D6F3DFAC911BCC935CF3DB8CFD7BE92
:10555000B427FB3B63CD413D1C0BBC3D8DE63B3E80
:1055600021EFCD3DF76029BE2043BF3DC479053E04
:10557000EC7E013EC097E83CF32455BD4D4F1FBD66
:105580005E800F3ED64D39BE2286DABC377310BE20
:105590005C4C03BD67B9F33C39828DBEB74216BE81
:1055A00042A6063E461F7D3D5905743B4D47C23D10
:1055B000BEF2BABE9DF15BBB9454D0BCEC8C46BD30
:1055C0004ACEAD3C5BD3E1BC2D1DFDBD1FDC103EC2
:1055D0004A862F3EE4414E3E5C3FEDBD7476F1BD00
:1055E000772486BD72FB2A3E0319F53D7B770BBD00
:1055F000B9C1CCBDE0B59B3D3C3D863D3FD30EBE21
:10560000D637663C47160B3C5020DA3C3BD3D0BD26
:10561000B07D99BC74EE5BBB9206BF3D53380BBDA9
:10562000047688BC61BDA93C0605823DAF0576BE07
:10563000D5D30DBD21C7BDBD355C72BD955E003EA5
:10564000B6E029BE97C7FFBD8998343EF6F6523EB4
:10565000D59D203E735C31BE6892D03D1A5E903D70
:105660004824DF3D15E67D3DA91ADBBD38DA4A3D09
:10567000444B693E01D1E1BD73A53D3D1B6822BE8F
:10568000F0A424BDFFCDCBBC924E523DA712B2BDBB
:105690009B6289BCDB1B24BE8D5D66BEE749E93C8D
:1056A000DA99DEBC3C299CBE598331BE09174CBE39
:1056B000333DE5BD6FB3DA3D6A4662BE7B09BFBDCF
:1056C00049D2153EB3D9A63DC3E3EB3DDD600D3EA7
:1056D000AC8CFC3C66CD903DB8E9043E4B003CBC34
:1056E000B24579BC3770513D96D013BED607ABBCDE
:1056F00071B221BE19C33EBCF15980BE8FEC9E3DF4
:1057000022E4BFBD2498B13DB4AE30BE64A929BE29
:10571000AA2B26BE2E8B023DF27AC5BB76F466BE5E
:10572000BEB931BEE3DCFFBDA68C41BDA2DE4F3E5B
:105730000EA43CBE562B4C3C36BB4DBD8231CABD7F
:105740006B3E003D5E092C3EC66B473E47B38E3C28
:105750002A7CD7BD10C5C83DD77AAE3B6937133E0A
:10576000C44EB23D732474BC76AE5F3C23C8243D66
:10577000FA425EBE42962FBE81A9873EE5C6C9BDEC
:10578000579A48BE595DA9BCB3F89C3D486E69BEA6
:1057900069D4E83C594300BC901C353E54B2863D68
:1057A000AA70EBBB2A20E6BE34D8393E17EE4B3D3B
:1057B0000705663CCC28A938FAA62DBE228963BE0F
:1057C00054AB843EE9A4283E1E970A3D0AAF3BBD78
:1057D0006E946FBD4516243E21C6893EFBCFB6BCF4
:1057E0007F44E13C2DC0B8BD14EE213DE046F13DC3
:1057F000518184BD748B05BE38DF583DBD1308BE92
:1058000081C10E3E0DA18B3E572D89BEB4FEA1BDB8
:1058100096CB54BDE4744DBCCA378E3E6C1A1ABD8B
:10582000EAE23BBE780069BE29F5B23D5F0C5B3D04
:105830007C43053E1D2163BE025FFABD04FA07BE2C
:105840007DC1143B7A9C75BCD49C7CBB388E74BEE5
:10585000B611353D4828D43C4278FC3D93761CBEB9
:105860000DDD7EBC6282DBBD60663B3EB22FD5BCE7
:10587000A71C6FBD0EB93FBE0476B5BD2E89343E60
:10588000C75E58BE55363DBD6059E3BDC22507BE53
:1058900014A3D13DB51DDA3EEF441BBED367C6BD90
:1058A000F25B8D3DA4454EBDF5089B3E025BBB3EC1
:1058B00070625EBE8FC36FBE427F5B3EDD76CB3DC6
:1058C0009095D83DDD369D3CF97189BD432501BEDB
:1058D000A57B2EBE74F2EA3B6A2CEB3C3B3AFFBD43
:1058E00055D91D3E340310BD356B813DFFD883BDB6
:1058F0005ADE15BED6D81DBE4CDBBD3DA7139CBCE1
:10590000C5B334BE398C7FBED89746BEFAD517BD15
:105910006CF7F23DCAB816BD760EB53B2B5345BEAB
:10592000E07946BEF9C9443D2684DABD40842CBBEB
:105930005024013D6EE8613CA89E0C3D94C6BEBD5E
:10594000FA9A4BBDEFB72D3D7A71A33D0CDA94BCAA
:10595000C911743C19CD89BDA8C12A3D8BD6E23D41
:10596000DB235A3DDCD90FBDB730813D8F36803DFA
:105970006EDD933E5466FC3D7D845F3DFDEA05BED1
:10598000823856BDA83F58BEDD94383EA5C4023EBD
:1059900009A4C03D1BC6A939FBA86ABE78DE3FBE7C
:1059A000BF864ABDD9DDE53DA83133BC45EB3CBDE2
:1059B000AB0734BE5B24203EBCF877BD29C9AFBC21
:1059C000735404BDF8BE10BD1B4453BDB84755BD4C
:1059D0004A58ABBD939BDEBDBDCB023DBD6D5C3C6B
:1059E000D17C22BD6D75A0BC9D89DABBCC4A99BD26
:1059F000960E41BDEF62C1BD741F393DD3189CBDE9
:105A000067D7BBBD7506BABD40B0E63D82C69C3DBA
:105A1000EC75083ECA2D90BE7047B1BD91C5353EAC
:105A200018C9B53DED8E893DF7EBFE3D3630DCBD46
:105A300029275B3D5EB7223E4750A03D668F27BEBB
:105A4000F3DBBDBDA85410B9DBC2223E5B9287BD1B
:105A5000D4269BBD5277193C33FF04BE1A59293E08
:105A6000465288BEBE65AD3CF55FB53CFDF7FFBD57
:105A7000F5785DBD9A80083CBC8E29BE123BA3BE62
:105A800036715A3CED1D58BD5DF5A63DAF4172BD66
:105A9000F67461BE82FAD73DA567663C7FBAC53D04
:105AA00072BB5C3DD47CC2BEA9182EBEB21C7E3E29
:105AB0006FFF143E90F3833D5283E4BDD400C1BD1B
:105AC0001D026B3ED9BF873D16378ABC57F5093E8C
:105AD00030FD59BC280542BDA4175E3EFA431CBEEA
