:020000040800F2
:1000000060B2002011020008471B00089517000885
:10001000451B0008090800082D2500080000000005
:10002000000000000000000000000000C71F0008E2
:100030005109000800000000211D00084D200008A3
:100040002B0200082B0200082B0200082B020008DC
:100050002B0200082B0200082B0200082B020008CC
:100060002B0200082B0200082B0200082B020008BC
:100070002B0200082B0200082B0200082B020008AC
:100080002B0200082B0200082B0200082B0200089C
:100090002B0200082B0200082B0200082B0200088C
:1000A0002B0200082B0200082B0200082B0200087C
:1000B0002B0200082B0200082B0200082B0200086C
:1000C0002B0200082B0200082B0200082B0200085C
:1000D0002B020008C12400082B0200082B02000894
:1000E0002B0200082B0200082B0200082B0200083C
:1000F0002B0200082B0200082B0200082B0200082C
:100100002B0200082B0200082B0200082B0200081B
:100110002B0200082B0200082B0200082B0200080B
:100120002B020008D90800082B0200082B02000847
:100130002B0200082B0200082B0200082B020008EB
:100140002B0200082B0200082B0200082B020008DB
:100150002B0200082B0200082B0200082B020008CB
:100160002B0200082B0200082B0200082B020008BB
:100170002B0200082B020008CD0800080000000038
:100180002B0200082B0200082B0200082B0200089B
:100190002B0200082B0200082B0200082B0200088B
:1001A0002B0200082B0200082B0200082B0200087B
:1001B0002B0200082B0200082B0200082B0200086B
:1001C0002B0200082B020008000000002B02000890
:1001D0002B0200082B0200082B0200082B0200084B
:1001E0002B0200082B0200082B0200082B0200083B
:1001F0002B0200082B020008DFF810D000F058FA9C
:1002000000480047ED4D0008AFF3008060B20020C9
:100210000648804706480047FEE7FEE7FEE7FEE7A0
:10022000FEE7FEE7FEE7FEE7FEE7FEE751200008F7
:10023000F90100082DE9F05F0546002092469B4633
:1002400088460646814640241BE0284641464746EC
:10025000224600F064F853465A46C01A914110D322
:1002600011461846224600F04BF82D1A67EB01089C
:100270004F4622460120002100F042F817EB00090A
:100280004E41201EA4F10104DFDC484631462A46D7
:100290004346BDE8F09F40EA01039B0703D009E015
:1002A00008C9121F08C0042AFAD203E011F8013B62
:1002B00000F8013B521EF9D2704730B504460020C9
:1002C000034600E05B1C934203D2E05CCD5C401B24
:1002D000F8D030BD30B50B46014600202022012465
:1002E00009E021FA02F59D4205D303FA02F5491B04
:1002F00004FA02F52844151EA2F10102F1DC30BD1A
:10030000202A04DB203A00FA02F1002070479140D5
:10031000C2F1200320FA03F3194390407047202ACA
:1003200004DB203A21FA02F00021704721FA02F39F
:10033000D040C2F1200291400843194670472DE990
:10034000FE4F804681EA0300C00F0C46009021F06A
:10035000004123F00045B8EB0200A94105D2404618
:10036000214690461C460B46024623F000401043AF
:1003700047D0270DC7F30A00C3F30A510290401A71
:10038000019040286BDAC3F3130040F4801B0098FF
:10039000924620B10023D2EB030A63EB0B0B0198CA
:1003A0005946C0F140025046FFF7AAFF06460D46E7
:1003B00050465946019A00F08DF910EB0800614152
:1003C000002487EA115284EAE7731A4340D0009A66
:1003D00062B3019A012A4FEA075215DC001B61EB58
:1003E00002014FF0004202EA0752CDE90042001C30
:1003F00041F5801132462B4600F08DF903B0BDE87F
:10040000F08F40462146F9E7001B61EB0201001C1A
:1004100041F5801300185B412018A2F5001747EB47
:10042000030140EAD570B6196D4111E06D084FEA3D
:10043000360645EAC0754FEA0752001B61EB020120
:10044000001C41F5801149084FEA30000019514164
:1004500032462B4603B0BDE8F04F00F04DB900988E
:10046000012240000023D0EB020263EBE07300980E
:1004700021464FEAE074B8EB000061EB0401E9E7C4
:1004800083F000435BE781F0004158E72DE9FE4F20
:1004900081EA030404F0004421F0004100944FF08D
:1004A000000B23F0004350EA01045ED052EA03043B
:1004B0005BD0C3F30A54C1F30A552C44A4F2F334BD
:1004C0000194A0FB0254C1F3130141F48011C3F362
:1004D000130343F4801301FB024400FB034E840A20
:1004E000970A44EA815447EA8357A4FB07680295B8
:1004F0008D0A05FB07854FEA932C04FB0C54270556
:10050000029D4FEA065847EA1637B5EB08056EEB31
:10051000070C870E920E47EA811742EA8312A7FB67
:100520000201B6EB0B0164EB00042B0D43EA0C3324
:100530005E1844EB1C50DA465146E7FB0201C5F356
:1005400013044FEA0B3343EA14534FEA0432019C7D
:1005500043EA0603A4F10C040294009CCDE900B424
:1005600000F0D9F803B0BDE8F08F00200146F9E7AC
:100570002DE9F04D81EA030404F0004B21F0004521
:1005800014464FF0000A23F0004150EA050220D043
:1005900054EA01021DD0C5F30A570246C5F31303FE
:1005A000C1F31300C1F30A5640F4801543F48013DD
:1005B000A7EB0608101BD64608F2FD3873EB0500C2
:1005C00002D308F1010801E092185B41B8F1000F75
:1005D00003DA00200146BDE8F08D00204FF48011C1
:1005E000064684460EE0171B73EB050705D3121B66
:1005F00063EB050306434CEA010C49084FEA30005F
:1006000092185B4150EA0107EDD152EA030012D083
:1006100082EA040083EA0501084305D0101BAB41C0
:1006200006D20122002306E000224FF0004302E040
:100630006FF0010253101AEB06004CEB085110EB5F
:100640000A0041EB0B01BDE8F04D00F055B8C1F3D5
:100650000A52C1F3130140F2FF3341F480119A4270
:1006600002DA00200146704740F233439A42A2F278
:10067000334202DC5242FFF752BEFFF741BE000098
:1006800030B5041E71F1000404DB4FF00044404219
:1006900064EB0101141E73F1000405DB1C464FF0EE
:1006A0000043524263EB0403994208BF904230BDBD
:1006B000064C074D06E0E06840F0010394E80700AF
:1006C00098471034AC42F6D3FFF79AFDCC280408C3
:1006D000EC280408202A06DBCB17203A41FA02F066
:1006E00043EAE07306E041FA02F3D040C2F120028F
:1006F000914008431946704710B5141E73F1000469
:1007000008DA401C41F1000192185B411A4301D103
:1007100020F0010010BD2DE9F04D92469B4611B12D
:10072000B1FA81F202E0B0FA80F220329046FFF78F
:10073000E7FD04460F4640EA0A0041EA0B01534632
:100740005A46084313D0114653EA010019D0C8F1A4
:1007500040025046FFF7E3FD05460E465046594617
:100760004246FFF7CDFD084305D0012004E02046B6
:100770003946BDE8F08D0020054346EAE0762C437B
:1007800037430A986305E40AA0EB08000022FD0A3B
:1007900044EA47540A3002D500200146E9E7010542
:1007A00010196941DDE9084500196941BDE8F04DBE
:1007B000A2E770B58C1810F8015B15F0070301D1A2
:1007C00010F8013B2A1106D110F8012B03E010F8B4
:1007D000016B01F8016B5B1EF9D12B0705D40023D7
:1007E000521E0DD401F8013BFAE710F8013BCB1A79
:1007F000921C03E013F8015B01F8015B521EF9D56E
:10080000A142D8D3002070BDFEE70000204AF0B519
:10081000204E116840F25144631C002021F0010772
:10082000176001213268C2F30A02A2F58065493DD2
:1008300004D0A24204D140F0010005E0084603E0E4
:100840009A4201D1012200E00022144B1043124AC7
:1008500009D01348816081680029FCD102600068DA
:10086000984213D0FEE70F4C4FF00A402468B0EBDB
:10087000445F0BD10C48016001680029FCD10A4893
:10088000083802600068984200D0FEE7F0BD000022
:10089000002000E0002004E0C2A507F4CDB5E8B5D3
:1008A000003002400010005C084C025810B5806B0C
:1008B000816C496D022906D0012180F83510C16C88
:1008C00041F04001C16400F0BBF810BD014800F0E8
:1008D000CBB80000AC710020194830B41A4C1A494A
:1008E000184D603C0068B839174BA84202D9154A28
:1008F000543A03E0984203D9124A583A126804E085
:10090000A04201D94A6800E00A6812F4006F15D0CD
:10091000A8424FF4006202D90A484C3803E09842DA
:1009200003D908485038026004E0A04201D9CA60E7
:1009300000E08A600548406830BC004730BC704722
:10094000FC71002058640240B8600240B80A0020E0
:100950007047F0B50126044600201E2301E05B1E0F
:1009600005D303F01F0706FA07F50D42F7D072B161
:10097000082A0AD0102A05D0182A01D1072B06D33D
:100980000120F0BD082BFBD201E0102BF8D2236828
:10099000596121688B6823F0180313438B60F0BD05
:1009A00010B5040010D0607F20B9002020772046C9
:1009B00000F032F821790220607739B1D4E90212CF
:1009C0002046FFF7C6FF48B1012010BD216811483D
:1009D00048612068816821F0180181606079A0B1C8
:1009E000216820690861012220686369816821F01B
:1009F0006001194381602068A369816821F080014A
:100A0000194381606277002010BD21684FF0FF30EC
:100A1000E8E70000B71DC10408B500680649884230
:100A200008D10648016841F480510160006800F473
:100A30008050009008BD0000003002403038024075
:100A40007047000010B504F0CFF90549054A087851
:100A5000401C08701068C16841F00101C16010BD00
:100A6000B80A0020AC7100202DE9F041044600686E
:100A7000234F0426056969070BD54661E06C40F0F9
:100A80000200E06484F83560A06C0765A06C00F09B
:100A90003BF8A8070DD5216802204861E06C40F0C2
:100AA0000100E06484F83560A06C0765A06C00F07C
:100AB0002BF8E80605D5216810204861204600F093
:100AC00021F8280705D5216808204861204600F054
:100AD0001AF8E80712D020680168890703D5C168B1
:100AE00021F01E01C16020680121C26822F00102CC
:100AF000C260206841612046FFF7A4FFBDE8F08195
:100B0000AD0800087047704790F83510022903D0EF
:100B10008021416501207047052180F8351000686B
:100B2000016821F001010160002070472DE9F84FB4
:100B300000224FF001094FF0030A4FF00F0E00BFE3
:100B40000B6809FA02F42340A34270D14D68012DCD
:100B500005D0022D03D0112D01D0122D11D18568A1
:100B60005700CE680AFA07FC25EA0C05BE402E4362
:100B7000866045680E79A543C6F3001696402E435D
:100B80004660C56856008F680AFA06F4A543B74068
:100B90002F43C7604D68022D01D0122D12D1D50808
:100BA0000F694FEA427C00EB8505AB462D6A4FEAA0
:100BB000DC6C0EFA0CF807FA0CF725EA08052F434F
:100BC000CBF820700D79076805F00305A743B54001
:100BD0003D4305604C68E40074D53D4C256845F400
:100BE00080452560246822F00307960704F48044BA
:100BF0000094384C360F2744D7F80848DFF8D8C09F
:100C00000EFA06F5604524EA050401D100252EE020
:100C1000324DA84201D1012529E0314DA84201D130
:100C2000022524E02F4DA84202D103251FE049E010
:100C30002D4DA84201D1042519E02C4DA84201D127
:100C4000052514E02A4DA84201D106250FE0294DC3
:100C5000A84201D107250AE0274DA84201D1082565
:100C600005E0264DA84201D1092500E00A25B5403E
:100C7000234E2543C7F808584D683468ED0324EA2D
:100C8000030400D51C431E4D34602D1D4E682C6896
:100C9000B60324EA030400D51C43194E2C60083621
:100CA0004D683468ED0224EA030400D51C43144D5A
:100CB00034600C354E682C68B60224EA030400D573
:100CC0001C432C60521C102AFFF43AAFBDE8F88F89
:100CD000443802400030014000000240000402405D
:100CE00000080240000C02400010024000140240C4
:100CF00000180240001C0240002002400024024074
:100D0000003C01400069084000D0012070470AB152
:100D1000816170470904FBE7014880687047000063
:100D20009C0A002002488168027811448160704763
:100D30009C0A0020032010B500F06EF8002000F09F
:100D400005F800F023F8002010BD000070B50D4D2F
:100D500004464FF47A700C4A29781268B0FBF1F01F
:100D6000B2FBF0F000F062FB48B9102C07D2002271
:100D70002146501E00F030F800206C6070BD01204C
:100D800070BD00009C0A0020A80A00200A4808B58F
:100D9000016841F080510160006800F080500090CF
:100DA0000548001D016841F480410160006800F4BD
:100DB0008040009008BD000040380240002809DB58
:100DC000410900F01F028900012001F1E02190405B
:100DD000C1F80001704700000E4BF0B41B680D46CF
:100DE000C3F30223C3F10706042E00D90426191DFC
:100DF000072901D2002300E0DB1E012404FA06F1DA
:100E00009C40491E2940641E994014402143F0BC77
:100E100001F0B1BB0CED00E0064900F0070210B58F
:100E20004FF6FF040868044B204040EA02201843B4
:100E3000086010BD0CED00E00000FA051848F8B598
:100E4000016841F0805101600068164C00F080504C
:100E50000090206840F480302060FFF75DFF4FF481
:100E60007A76054605E000BFFFF756FF401BB0420B
:100E70000FD86068C003F7D5206840F400302060C8
:100E8000FFF74AFF054606E0FFF746FF401BB0426A
:100E900001D90320F8BD60688003F5D50020F8BDB6
:100EA00040380240007000402DE9F04705000F4631
:100EB00063D0444E306800F00F00B84209D2306869
:100EC00020F00F0038433060306800F00F00B84267
:100ED00053D128683C4C810712D5400703D52068C0
:100EE00040F4E05020602878000703D5206840F4E3
:100EF00060402060A968206820F0F000084320606E
:100F00002878C0072AD0304968680839012810D0ED
:100F10000968022810D0890700292EDA216821F0FB
:100F2000030101432160FFF7F7FE804641F2883953
:100F30000DE009688903EFE78901EDE7FFF7ECFEB3
:100F4000A0EB0801494502D90320BDE8F087686895
:100F5000216801F00C01B1EB800FEFD1306800F097
:100F60000F00B8420BD9306820F00F0038433060D2
:100F7000306800F00F00B84201D00120E5E7287882
:100F8000400705D5E968206820F4E0500843206058
:100F90002878000706D52869216821F4604141EAD4
:100FA000C000206000F038F82168084AC1F303113E
:100FB000515CC8400649086006480068FFF7C6FE55
:100FC0000020C2E7003C024008380240E82504083F
:100FD000A80A0020A00A0020044905480968006802
:100FE000044AC1F38221515CC8407047083802406E
:100FF000A80A0020F8250408044905480968006883
:10100000044AC1F34231515CC8407047083802407D
:10101000A80A0020F8250408154910B515480968E4
:1010200011F00C0213D01449042A0FD0082A0ED153
:101030000F4C241F2268236802F03F025B0207D591
:101040002068C0F38810A0FB010106E0084610BD2F
:101050002168C1F38811A1FB00010023FFF7EAF822
:101060002168C1F30141491C4900B0FBF1F010BDFA
:10107000083802400024F40040787D012DE9F84F43
:1010800004004FF000076ED02078DFF87CA3AAF1AF
:101090000408C007A8F104054CD0DAF80010504647
:1010A000C1F38101012908D00068C0F38100022842
:1010B0000AD1D8F80000400206D52868800339D547
:1010C00060680028DFD035E06068B0F5803F0BD065
:1010D00010B1B0F5A02F11D0286820F4803028601E
:1010E000286820F4802002E0286840F480302860DE
:1010F000606890B1FFF710FE06460AE0286840F4E9
:1011000080202860F0E700BFFFF706FE801B642800
:1011100072D828688003F7D50CE0FFF7FDFD06467E
:1011200005E000BFFFF7F8FD801B6428F0D82868B1
:101130008003F7D42078800742D5DAF800105046B3
:1011400011F00C0F08D00068C0F3810002280BD109
:10115000D8F80000400207D42868800718D5E06856
:10116000012800D114E04AE1E0680028286817D07F
:1011700040F001002860FFF7CFFD064605E000BF04
:10118000FFF7CAFD801B0228C2D828688007F7D560
:101190002069296821F0F80141EAC00028600FE0C9
:1011A00020F001002860FFF7B7FD064605E000BF0C
:1011B000FFF7B2FD801B02281ED828688007F7D4ED
:1011C0002078000729D5904861696C300029814654
:1011D000016812D041F001010160FFF79DFD064654
:1011E00005E000BFFFF798FD801B022804D8D9F85E
:1011F00000008007F6D510E089E021F001010160D0
:10120000FFF78AFD064604E0FFF786FD801B0228F3
:101210007DD8D9F800008007F6D4207840076BD538
:10122000DFF8E49109F13809D9F80000C0000BD4C7
:10123000D9F8001041F08051C9F80010D9F8000029
:10124000012700F08050009070480168C90512D451
:101250000168834641F480710160FFF75DFD064639
:1012600005E000BFFFF758FD801B64284FD8DBF86E
:101270000000C005F6D5644EA068683601280AD083
:1012800008B1052811D0306820F0010030603068C6
:1012900020F0040002E0306840F001003060A068F7
:1012A000A0B1FFF739FD83460CE0306840F0040040
:1012B0003060F0E7FFF730FDA0EB0B0141F2883022
:1012C000814268D830688007F4D50EE0FFF724FD2E
:1012D000834607E0FFF720FDA0EB0B0141F28830C9
:1012E000814258D830688007F4D42FB1D9F8001063
:1012F00021F08051C9F80010A069E0B3DAF80010BD
:10130000C1F3810102294DD00228286800E042E0A3
:1013100020F08070286003D0FFF7FEFC04463DE01B
:10132000FFF7FAFC064604E0FFF7F6FC801B0228F4
:1013300031D828688001F7D4D4E90921DFF8D0C07A
:10134000D4E9070694F830304F0894F82C10304355
:101350000CEB074444EA8212104340EA016040EA81
:101360000370C8F80000286840F080702860FFF71C
:10137000D3FC044605E044E0FFF7CEFC001B022846
:1013800009D828688001F7D53BE000BFFFF7C4FC0F
:10139000001B022802D90320BDE8F88F28688001CD
:1013A000F4D42EE00128D8F8000028D0E16900F438
:1013B00080028A4223D1216A00F03F028A421ED174
:1013C000626A47F6C0710140B1EB821F17D1A16A72
:1013D0004FF0FF3200F4403302EB5101B3EB014F09
:1013E0000DD194F82C1000F07062B2EB016F06D1B1
:1013F00094F8301000F0E040B0EB017F01D0012004
:10140000CAE70020C8E7000008380240007000402A
:101410000000FFFF04284FF0E020016903D021F015
:1014200004010161704741F00401FAE7401EB0F188
:10143000807F10B501D3012010BD4FF0E024606122
:101440000F21601701F097F80020A06107212161AA
:1014500010BD7047704700002DE9F0410268044656
:10146000002540F60F06D06911689368304205D117
:1014700086067BD58E0679D5216E87E003F00106BE
:1014800001F49077374371D0C70707D0CF0505D552
:1014900001271762E26F42F00102E267820708D576
:1014A000DA0706D0276802223A62E26F42F00402AD
:1014B000E267420708D5DA0706D0236804221A62D9
:1014C000E26F42F00202E26702070AD501F0200251
:1014D000324306D0236808221A62E26F42F0080203
:1014E000E267020509D54A0107D523684FF4006277
:1014F0001A62E26F42F02002E267E26F002A2ED009
:10150000800605D5880603D5216E09B12046884797
:101510002168E06F8968490602D410F0280F20D0B6
:10152000204600F03DFE20688168490614D5816898
:1015300021F040018160E06E70B11D490165E06EEF
:10154000FFF7E2FA00280AD0E06E016D00E02046C5
:10155000BDE8F041084709E02046FFF77BFFBDE802
:10156000F0812046FFF776FFE567F8E7C60208D569
:101570005B0206D54FF4801010622046FFF769FF2A
:10158000EDE7030605D50B0603D5616E0029DED114
:10159000E5E74006E3D54806E1D51368202120465B
:1015A00023F0400313606167656600F0F2F8D6E748
:1015B0008D21000810B5040002D0606F10B107E063
:1015C000012010BD002084F87000204600F026F8AD
:1015D000242060672068016821F001010160204635
:1015E00000F0EEFD0128ECD0606A10B1204600F05A
:1015F0003DFD2068416821F4904141602068816888
:1016000021F02A0181602068016841F00101016038
:101610002046BDE8104000F08DBD000030B51E49E9
:101620000446006887B0884233D11C48016841F005
:1016300001010160006800F00100059017481430B6
:10164000016841F01001016000680122144D072378
:1016500000F010000590022004930102CDE9001073
:10166000CDE9022069462846FFF760FA2815694649
:1016700000902846FFF75AFA2068016841F02001DF
:1016800001602520FFF79AFB032225201146FFF772
:10169000A3FB07B030BD000000100140303802400D
:1016A000000002402DE9F84F0446806F9A46164626
:1016B0000D4620286BD1EDB1E6B194F870000128F9
:1016C00065D0012284F8702022214FF00008C4F870
:1016D0007C80A167FFF720FB8146A068A4F85860D2
:1016E0004FF48053A4F85A60FF21984208D1226930
:1016F0001AB11DE00120BDE8F88F40F2FF1117E09C
:101700004FF07F0290B1B0F1805F14D0A4F85C80FC
:101710009842B4F85C7001D1206998B12E4600253A
:10172000404607F0FF0884F8700024E0266936B9C7
:10173000A4F85C10ECE7216909B13F21F8E7A4F8AF
:101740005C20E5E70026EBE700224B4620212046FF
:10175000CDF800A000F062FE08B10320CBE72068BE
:10176000406A86B100EA080006F8010BB4F85A0096
:10177000401EA4F85A00B4F85A000028E4D12020F2
:10178000A0670020B7E7384025F8020BEEE70220FB
:10179000B1E77047FEE7000010B5124C002210219F
:1017A0002046FFF7B4FA206820F4406020602068EB
:1017B00040F480602060002220462021FFF7A7FA35
:1017C000022002F037FF012220461021FFF79FFA86
:1017D000022002F02FFF00222046BDE81040102119
:1017E000FFF795BA001C0240114810B586B0016899
:1017F00041F080010160006802220E4C302100F0AF
:10180000800005900120CDE90202CDE90010694673
:101810002046FFF78BF9012220462021FFF777FAB7
:10182000012220461021FFF772FA06B010BD000019
:1018300030380240001C024010B5124C002210212A
:101840002046FFF764FA206820F44060206020689A
:1018500040F480602060012220462021FFF757FAE3
:10186000022002F0E7FE012220461021FFF74FFA86
:10187000022002F0DFFE00222046BDE810401021C9
:10188000FFF745BA001C02402DE9F041174C07460E
:10189000002520682E4620F44060206020682060EB
:1018A000002210212046FFF732FA022002F0C2FE89
:1018B000012220461021FFF72AFA68062021050E92
:1018C0002046FFF71FFA08B16D1CEDB2012002F0AF
:1018D000B1FE761CF6B2082EE2D327B1FFF75CFF0B
:1018E0002846BDE8F081FFF7A7FFF9E7001C02409A
:1018F00070B5194E05463046316821F440613160BB
:10190000316841F48061316000221021FFF7FFF956
:101910000024280601D5012200E0002230462021C3
:10192000FFF7F5F96806050E022002F083FE01229A
:1019300030461021FFF7EBF9022002F07BFE002277
:1019400030461021FFF7E3F9022002F073FE641C19
:10195000E4B2082CDDD370BD001C024010B5124C5F
:10196000206820F440602060206840F4806020609F
:10197000012220462021FFF7CAF90122204610212A
:10198000FFF7C5F9042002F055FE00222046202171
:10199000FFF7BDF9042002F04DFE00222046BDE80D
:1019A00010401021FFF7B3B9001C024010B5124CD3
:1019B000206820F440602060206840F4806020604F
:1019C000002220461021FFF7A2F900222046202104
:1019D000FFF79DF9042002F02DFE01222046102180
:1019E000FFF795F9012220462021FFF790F9BDE885
:1019F0001040042002F01EBE001C024070B5174CBF
:101A00000025206820F440602060206820600122CA
:101A100020212046FFF77BF9012002F00BFE012276
:101A200020461021FFF773F9012002F003FE07E0C2
:101A30006D1CEDB2FA2D03D9FFF7B8FF012070BD80
:101A400020212046FFF75EF90028F1D10022204630
:101A50001021FFF75CF9002070BD0000001C02405F
:101A600005A010B500F064FD02F0DEFBBDE81040FB
:101A7000094901F059BE00000D0A54454D504C4132
:101A80005445202D20696E697469616C697A6174AE
:101A9000696F6E0D0A000000C00B002030B5ADF676
:101AA0006C4D18494FF444626846FEF7F4FB16A0EB
:101AB00000F03EFD1C4C2068002820D01B4A118EEF
:101AC000012902D1518E012904D00E481849343819
:101AD00000680EE0D2E90D120DF54463C1F810D094
:101AE000136102F0EEFB012805D0206802F0A0FB94
:101AF00010A102F04BFB0DF5446003F07BFC0DF6EA
:101B00006C4D30BDA819040854454D504C41544506
:101B1000202D2072756E202D206D61696E206C6FF6
:101B20006F700D0A00000000980A00204C0B002086
:101B30008428040861695F6E6574776F726B5F72E9
:101B4000756E0000FEE7FEE770B53948002486B0E8
:101B5000016841F00101016000680321354E4FF436
:101B6000004500F0010005900120CDE90201694621
:101B7000CDE900503046FEF7D9FF00F06FF80020A5
:101B800000F068F80A2002F047FD0022294630469E
:101B9000FFF7BDF80A2002F03FFD0122294630463A
:101BA000FFF7B5F800F0BEF80121FF2000F0ECF9D6
:101BB0008021122000F0E8F9322002F02DFD1C20D7
:101BC00000F030F94FF6FF7505EA00261D2000F001
:101BD00029F93043A0F5FE41A23906D0014616A0EE
:101BE00000F0A6FC012006B070BD0A2000F01AF932
:101BF00005EA00250B2000F015F92843A0F518513F
:101C0000423905D001460FA000F092FC0220EAE71D
:101C10000F4D00BF05EB4400417815F8140000F0AB
:101C2000B3F9641CA4B2B22CF4D30020DBE70000AB
:101C300030380240000002404D49443A25640D0A04
:101C4000000000004849443A25640D0A00000000E5
:101C5000002604080146022000F03CB8134810B5E5
:101C600086B0016841F00201016000680021012294
:101C700000F00200059003234FF480508DE80F0020
:101C80000B486946FEF752FFFFF7AEFDFFF766FE11
:101C90004020FFF72DFEFFF7B1FE0446FFF786FE5A
:101CA000FF2000F028F806B0204610BD3038024072
:101CB0000004024010B5FFF751FE4120FFF718FE67
:101CC000FFF79CFE0020FFF7DFFD0446FFF76EFEE6
:101CD000204610BD70B50D460446FFF7EBFF01220C
:101CE00002FA04F22DB10243D0B2BDE8704000F018
:101CF00002B89043F9E710B50446FFF72FFE4020E5
:101D0000FFF7F6FDFFF77AFE2046FFF7F1FDFFF73C
:101D100075FEFFF74BFEBDE810400A2002F07CBCC8
:101D200070470000104810B586B0016841F002010C
:101D30000160006802220D4C182100F0020005909D
:101D40000120CDE90202CDE9001069462046FEF7E8
:101D5000EDFE206820F0C0002060206840F04000C8
:101D6000206006B010BD0000303802400004024080
:101D7000322010B502F05EFC0F4C012208212046F3
:101D8000FEF7C5FF012220461021FEF7C0FF3220DA
:101D900002F050FC002220461021FEF7B8FF32204E
:101DA00002F048FC002220460821FEF7B0FFBDE803
:101DB0001040322002F03EBC0004024070B5184CC6
:101DC00000252068082620F0C000206020682060E0
:101DD000322002F02FFC012220461021FEF797FF4F
:101DE00068060821050E2046FEF78CFF08B16D1C21
:101DF000EDB2322002F01EFC002220461021FEF738
:101E000086FF761E16F0FF06E2D1206820F0C000A3
:101E10002060206840F040002060284670BD00002F
:101E20000004024010B5044600F022F8602000F0E3
:101E30005DF8642002F0FEFB204600F057F86420B5
:101E400002F0F8FB00F034F8642002F0F3FB00F03D
:101E50000FF8612000F04AF8642002F0EBFBFFF776
:101E6000ADFF0446FFF784FF00F022F8204610BDC6
:101E700010B50E4C012208212046FEF748FF012232
:101E800020461021FEF743FF322002F0D3FB002250
:101E900020460821FEF73BFF322002F0CBFB002258
:101EA0002046BDE810401021FEF731BF000402407B
:101EB00010B50D4C002208212046FEF728FF3220E5
:101EC00002F0B8FB012220461021FEF720FF32204D
:101ED00002F0B0FB012220460821FEF718FFBDE802
:101EE0001040322002F0A6BB0004024070B5254E1F
:101EF00000240546280601D5012200E000223046D4
:101F00000821FEF704FF6806050E322002F092FB5E
:101F1000012230461021FEF7FAFE322002F08AFB41
:101F2000002230461021FEF7F2FE641CE4B2082CB9
:101F3000E0D33068344620F0C00030603068306054
:101F4000322002F077FB012220461021FEF7DFFE4F
:101F5000322002F06FFB08212046FEF7D3FE08B1C5
:101F6000012500E00025204600221021FEF7CFFECB
:101F7000206820F0C0002060206840F04000206011
:101F8000284670BD0004024070B500240D46064688
:101F9000FFF76EFF6020FFF7A9FF00B10124642066
:101FA00002F048FB3046FFF7A1FF00B10124642096
:101FB00002F040FB2846FFF799FF00B10124FFF72C
:101FC00077FF204670BD7047F0B51E4C93B0256872
:101FD00045F080552560246804F0805412941A4C12
:101FE000256845F44045256024680DF1240C012541
:101FF00004F440441294022406948CE80D00E60395
:1020000068466705CDE90771CDE90056FFF736F858
:1020100000B1FEE7FEF712FF00B1FEE70FAD0021B1
:102020004FF4A0524FF4805385E80E000F20CDE905
:102030000D0407210DA8FEF737FF002800D0FEE7AA
:1020400013B0F0BD4038024000700040FEF76ABE99
:1020500005484FF000610368034A43F470030360CE
:10206000803A11607047000088ED00E090F824107D
:10207000C90706D00168836A4A6822F400321A430D
:102080004A6090F82410890706D50168C36A4A6837
:1020900022F480321A434A6090F82410490706D58A
:1020A0000168036B4A6822F480221A434A6090F860
:1020B0002410090706D50168436B4A6822F40042E0
:1020C0001A434A6090F82410C90606D50168836B4C
:1020D0008A6822F480521A438A6090F82410890694
:1020E00006D50168C36B8A6822F400521A438A60DD
:1020F00090F82410490611D50168036C4A6822F44F
:1021000080121A434A60016CB1F5801F06D1016844
:10211000436C4A6822F4C0021A434A6090F82410C3
:10212000090606D50168826C486820F40020104337
:1021300048607047F8B500260446C667FEF7ECFD18
:10214000054620686FF07E470068000708D500222A
:102150002B464FF400112046009700F05FF960B95C
:102160002068006840070AD500222B464FF4800102
:102170002046009700F052F908B10320F8BD202056
:10218000606784F87060A0670020F8BD10B5806BB0
:102190000021A0F85A10A0F85210FFF75BF910BD0B
:1021A00010B50168202200230C6824F490740C60A0
:1021B00001688C6824F001048C608267036610BD9E
:1021C0002DE9F04104468068DFF820C2884F23687B
:1021D000D4E90452E16928431E6800250A43854971
:1021E000104306EA0C0606431E604FF400422068C6
:1021F000E668436823F44053334343602368A66989
:10220000206AD3F808C030432CF4306606439E6041
:102210002068B8420AD1086810F0030052D00128A3
:102220007BD002287AD003286ED186E0724B984288
:102230000AD1086810F00C0079D004287BD0082857
:1022400077D00C2860D178E06C4B98420AD10868AE
:1022500010F030006BD010286DD0202869D03028C5
:1022600052D16AE0664B98420AD1086810F0C0006B
:102270005DD040285FD080285BD0C02844D15CE08E
:10228000604B98420DD1086810F440704FD0B0F503
:10229000807F50D0B0F5007F4BD0B0F5407F33D178
:1022A0004BE0594B98420FD1086810F4406009D0B8
:1022B000B0F5806F3FD0B0F5006F3AD0B0F5406F09
:1022C00022D13AE0012120E0504B98420DD108681C
:1022D00010F440502BD0B0F5805F2CD0B0F5005FEB
:1022E00027D0B0F5405F0FD127E0494B98420BD182
:1022F000086810F440401AD0B0F5804F1BD09042CF
:1023000017D0B0F5404F18D01021E0694FF6EF76A6
:1023100090423AD1092961D202E00CE009E006E0DE
:10232000DFE801F00D10255C285C5C5C2B000021CF
:10233000EBE70221E9E70421E7E70821E5E7FEF7FB
:102340004BFE01E0FEF758FE6168400000EB5100D3
:10235000B0FBF1F080B2A0F11001B1423ED84FF6CF
:10236000F0732168C0F342021840104326E0294967
:10237000606805E0FEF750FEE6E760684FF48031E4
:1023800001EB5001B1FBF0F0E4E7092926D2DFE8C8
:1023900001F0050817251C2525251F00FEF71CFE4A
:1023A00001E0FEF729FE616800EB5100B0FBF1F09F
:1023B00080B2A0F11001B14210D82168C8600EE0CF
:1023C0006068154901EB500105E0FEF725FEEAE7DC
:1023D000606802EB5001B1FBF0F0E9E70125002055
:1023E000206660662846BDE8F0810000F369FFEFD3
:1023F0000010014090380240004400400048004076
:10240000004C0040005000400014014000780040A3
:10241000007C00400048E8010024F4002DE9F0476A
:102420009A4617460E460446089D4FF000094FF0A5
:10243000200839E0681C37D0FEF76EFCA0EB0A00DC
:10244000A84222D80DB32068016849072CD5C0697D
:10245000C043000528D423684FF400611962216845
:102460000B6823F4D0730B6021688B6823F00103A1
:102470008B60C4F87480C4F87880C4F87C8000BF96
:10248000032084F87090BDE8F08721680B6823F47E
:10249000D0730B6021688B6823F001038B60C4F854
:1024A0007480C4F87880EBE72068C06936EA0000E1
:1024B00004D00020B842BDD00020E4E70120F9E7B5
:1024C000184838B50068C069C043800622D4154852
:1024D00001224FF47A736946FFF7E4F81248018845
:1024E0000A0417D44A049DF800204FF0000304D5D5
:1024F0000A2A0ED141F4004112E00D2A0ED0094DF6
:10250000C1F30D04491CC83D89B2C7292A55018071
:1025100000D903800348FEF79FFF38BD41F4804196
:102520000180F7E72C710020AC0A0020FEE70000D4
:102530000FB4054B10B503A9044A029800F0D8FC6B
:1025400010BC5DF814FB0000814D0008B00A0020AB
:102550004100080218BF04200A0E18BF40F0010015
:102560004FF07F4232EA010108BF40F0020001282B
:1025700008BF05207047090700284FEA116104DBF6
:1025800000F1E02080F80014704700F00F0000F127
:10259000E02080F8141D70479FED3C0A63E000BF07
:1025A00092ED003A91ED004AD2ED012AD1ED013AC7
:1025B00004EE030A92ED022AD1ED021AD2ED030ACB
:1025C00091ED031A91ED044A03EEA20AD2ED043A0A
:1025D00092ED053AD1ED052A01EE820A92ED062A26
:1025E000D1ED061A01EE200A92ED071AD1ED070A85
:1025F00004EE230AD2ED083A91ED084A02EE830A6E
:10260000D2ED092A91ED093A01EE820A92ED0A2AE9
:10261000D1ED0A1A00EE810A92ED0B1AD1ED0B0AE8
:1026200004EE230A91ED0C4AD1ED0D3A03EE220A95
:1026300092ED0C3AD2ED0D2A01EE820A92ED0E2AAD
:10264000D1ED0F1A00EE810A91ED0E1AD2ED0F0AAC
:1026500040314032103B04EE030A03EEA20A01EEC1
:10266000020A01EEA00A102B9AD206E0F1EC010A50
:102670005B1EB2EC011A00EE810A002BF6D1D0ED00
:10268000000A30EE800A80ED000A7047000000006A
:1026900030B528B1144C031F002021680A4605E01C
:1026A000084630BD9A4203D810465268002AF9D134
:1026B000002800D041680BD00468A3EB0005A542B8
:1026C00004D11B681C440346046002E0436000E040
:1026D00023603AB11C68D51AA54203D115682C4471
:1026E0001C6052685A6030BDC00A002010B510EE60
:1026F000104A4FF019406849002200EB44002DEDCC
:10270000028B884257D8DFED650A14F0004F60EE67
:10271000200A14BF9FED621A9FED621A71EE200A23
:10272000FDEEE00A10EE900A00EE900AF8EEE00AE4
:102730009FED5D1A00EEC10A9FED5C1A00EEC10A22
:10274000DFED5B0A9FED5B1A00EE201ADFED5A0AFF
:1027500040EE010A9FED591A594B00F0030100EEBB
:10276000201A21EE000A7B4403EB8103D3ED000A1B
:10277000544B7B4403EB810393ED001A524B41EE23
:10278000000A7B4403EB8101801091ED000A70EE9A
:10279000800AEABB00EE100AB8EEC01ADFED4B1A51
:1027A0009FED4B0ABDEC028B01EE210ABCEEC00A84
:1027B00020EE200A10BD4FF0FF40A0431BD04FF089
:1027C000CE40B0EB440F82BF9FED420ABDEC028BBE
:1027D00010BD4148B0EB440F28BF012293D2022024
:1027E00000F0CAF814F0004F15D0BDEC028BBDE824
:1027F000104000F0A9B814F5000F02BF9FED370A92
:10280000BDEC028B10BDBDEC028BBDE8104000E0BA
:1028100007E000F08DB8BDEC028BBDE8104000F081
:102820008BB800EBD07359104FF07E5202EBC151C0
:1028300000EE101AA0EB630002EBC05060EE200A1D
:1028400000EE100A20EE208A18EE100A88B118EE69
:10285000100AB0F1FF4F15D018EE100AFFF778FEFE
:10286000042808BF00F070F8B0EE480ABDEC028BF7
:1028700010BD022000F080F8BDEC028BBDE81040D6
:1028800000F062B8022000F077F8BDEC028BBDE8E2
:10289000104000F051B800000000501E3BAAB840A4
:1028A000000000BF0000003F0070313EF4FD05371E
:1028B00012BB2A3D12BB2A3EFFFFFF3EFFFF7F3FB8
:1028C0008E00040092000400620004000000004B2F
:1028D00000007E4E0000803F0000A0850000000048
:1028E0002DE9F04782460F4C10480D4E0E4F001B4D
:1028F0004FF0000820F007054FF0010900221146B3
:10290000504602F049FA002802D1306810B1002088
:10291000BDE8F0873C60C4E90058C6F80090EDE7D8
:10292000C40A002064720020C00A002060920020C7
:1029300030EE000A704700009FED020A20EE000A08
:1029400070470000000000709FED020A20EE000AB0
:10295000704700000000001002E008C8121F08C104
:10296000002AFAD170477047002001E001C1121F10
:10297000002AFBD170470000014908607047000041
:10298000C80A00202DE9F05F00278A460446B946B0
:102990003E4637E0A06806EB4601D0E9012002EB95
:1029A000C10500EBC60BD8F81800006800F046FE21
:1029B00028600121A980D8F80C008089E880D8F827
:1029C0000C0000892881D8F80C004068E860D8F82D
:1029D0001800806828615FEA0B0009D0C0F80090F9
:1029E000D8F80010416029B1498819B1012102E0ED
:1029F000484603E00021016001B9002068617F1CA6
:102A0000BFB2761C0CB1208800E00020B04206D98D
:102A1000606820B150F826005FEA0008BAD11FB103
:102A2000A0684168CAF800103846BDE8F09F000071
:102A30002DE9FF5F82B00021DDE90430020DDDF8F1
:102A400040B0034318D044F61050A2F2FF32424384
:102A50001514119801281FD0A5EB0B00401C5FEA4C
:102A6000000A4FF000064E4FDFF83891B04650464E
:102A700015D5CAF1000413E0119801244AA30128D6
:102A800001D16FEA0B010298119AC0E90031C0E947
:102A9000024206B0BDE8F09FCBF10000DFE704463C
:102AA0000021404A491842EB0450CDE9001012E0E1
:102AB000E00707D032463B4640464946FDF7E6FC74
:102AC0008046894632463B4610461946FDF7DEFCF5
:102AD00006460F466410002CEAD1DDE90401DDE969
:102AE0000023BAF1000F06DAFDF7D0FC42464B4650
:102AF000FDF7CCFC05E0FDF73BFD42464B46FDF7FC
:102B000037FD04460E460022284BFDF7B9FD03D8D9
:102B10004FF0FF30014607E00022254B20463146AA
:102B2000FDF70DFCFDF793FD102409E0002C0ADBF6
:102B30000A220023FDF77EFB039B30321A55641EE8
:102B400050EA0102F2D1641C039AC4F11103144447
:102B5000119A012A03D0012208430DD10AE008434B
:102B600004D000204FF0110B119072E7A3EB0B057E
:102B70006D1E0DE05B4504DD4FF0000205F101051F
:102B800004E003DA4FF00002A5F10105002AECD0C1
:102B900002981199C0E90231C0E9004579E70000C7
:102BA000000014400000F03F300000000000F0433F
:102BB0000000E03F2DE9FE4F040092460F4604D08E
:102BC000B4F8480020B1E56C03E00020BDE8FE8FBA
:102BD0000025217B0020E082C943A082880702D023
:102BE00030221121E1E0002F61D0DDB32888C8B385
:102BF000B7F80490002658E0A868006800EB0610BB
:102C0000019054D070B306EB4600029007EBC00071
:102C10000090DBF818300189C2888E46C068D3F86E
:102C200004C051434143614519D8DBF80C10D1F879
:102C30000C80904513D1D1F80880F0450FD1496838
:102C400081420CD11868614600F0D5FCDBF80C20FD
:102C5000DBF81430D168DA685143884203D2182275
:102C60001221A2E023E0DBF81800006800F0E6FC87
:102C70000146029857F83020C801B0EBC21F01D0BE
:102C80001922EDE70098006988B10098808880B12A
:102C90004845494600D208465A468146DDE90010BB
:102CA00000F093F806F101062DB1288804E0172200
:102CB000D6E72122D4E70020B04206D9686820B1C7
:102CC00050F826B0BBF1000F96D1BAF1000F0AD030
:102CD000B4F84800012808D9E56C0C3505D02888DF
:102CE00018B100265DE0012070E718225CE0A868BA
:102CF000006800EB06183ED0B8F1000F3BD006EBA1
:102D000046000190BA690AEBC0018B46B1F808C0D1
:102D1000C888E646CB6851680CFB00FC0CFB03FC42
:102D20008C45E2D8D7F80CC0CDF800C0DCF80CC058
:102D30008445DAD10098D0F808C0F445D5D1009880
:102D400040689842D1D1106800F055FC7A6901467C
:102D5000F868D268C06850438142C6D3B869006839
:102D600000F06CFC0199C0015AF83110B0EBC11FA2
:102D700003D0192218E0172216E0DBF81000002813
:102D8000F9D0BBF8040070B14845494600D2084666
:102D9000594681463A46404600F017F806F10106CA
:102DA0003DB1288806E021221321204601F0DAFBFC
:102DB0000BE70020B04205D9686818B150F82670BA
:102DC000002F94D1A4F814908DE730B5D3685569DD
:102DD000DC68EB685C4384608B886343C3600C6988
:102DE000446009691944016091690B689B0007D42C
:102DF000D1E902355B1B23448B6091694068C86050
:102E000030BD2DE9F0410026054621E0AA68886919
:102E10001368026803EB0614920005D58068D4E9B4
:102E20000112FDF738FA08E0D0E902236768D21AE8
:102E30003A44826089696068C860D4E90010A26879
:102E400010446060884201D3E068081A6060761C14
:102E50000DB1288800E00020B04206D9686800283B
:102E600003D050F826100029D0D1BDE8F0812DE91B
:102E7000F041002605462BE0AA68816913680A68BC
:102E800003EB061492000FD58968D4E90102FDF71F
:102E900002FAD4E90101084460602168884201D344
:102EA000E068081A606012E0D4E90021A3681944C0
:102EB0006160914201D3E168511A61608269D2E98F
:102EC0000237DB1B1944916080696168C160761C20
:102ED0000DB1288800E00020B04206D968680028BB
:102EE00003D050F826000028C6D1BDE8F0810000CC
:102EF0002DE9FF4F95B09A46884606460025EEE13B
:102F0000252877D100242746F94A0121039400E0BF
:102F1000044316F8013F203B01FA03F01042F7D1B9
:102F200030782A2811D06FF02F033078A0F13002CA
:102F3000092A16D8039A44F0020402EB820203EB3A
:102F400042021044761C0390EFE758F8042B0392DA
:102F5000002A03DA504244F40054039044F002047F
:102F6000761C30782E2816D116F8010F44F0040490
:102F70002A280DD06FF02F023078A0F13003092BF2
:102F800009D807EB870302EB4303C718761CF3E766
:102F900058F8047B761C30786C280FD006DC4C285F
:102FA00017D068280DD06A2814D104E0742810D0F6
:102FB0007A280FD10DE044F400140AE044F48014A0
:102FC00001E044F440147278824202D104F5801486
:102FD000761C761C307866280BD013DC582877D006
:102FE00009DC002875D04528F6D04628F4D04728BB
:102FF0001AD193E118E0632835D0642879D0652888
:1030000012D18BE1702873D008DC6728F1D06928D1
:103010006FD06E280DD06F2806D1ACE073282CD06D
:10302000752874D0782853D05246179990476D1C54
:1030300054E1C4F30250022809D003280DD0D8F877
:10304000001004280DD00D6008F1040846E1D8F8FE
:103050000010EA17C1E90052F6E7D8F800100D8019
:10306000F2E70D70F0E718F8041B8DF8001000204F
:103070008DF80100EB46012003E058F804BB4FF047
:10308000FF3061074FF0000102D40DE009F10101AA
:103090008946B9420FDA8145F8DB1BF8091000298F
:1030A000F4D108E009F1010189468142FADB1BF8FD
:1030B00009100029F6D103985346A0EB09072146D1
:1030C0003846179A00F080FA284400EB090507E01B
:1030D00044E008E10DE01BF8010B524617999047B8
:1030E000B9F10109F7D2534621463846179AF2E062
:1030F00039E00A21C4F302524FF0000B0091022A7A
:1031000006D058F8040BC117032A09D00AE023E0BF
:1031100008F1070020F00702F2E80201904605E0FE
:1031200000B2C117042A01D140B2C117002906DA42
:103130000A460021404261EB02012D2202E02205F5
:1031400004D52B228DF80420012203E0E20701D0F0
:103150002022F7E7914657E00A2100E010214FF0C6
:10316000000B00910BE010214FF0000B44F0040421
:103170000827009103E008204FF0000B0090C4F3F3
:103180000252022A05D058F8040B0021032A08D065
:1031900008E008F1070020F00702F2E8020190467B
:1031A00003E080B2042A00D1C0B24FF00009220728
:1031B0002AD53278702A07D0DDF800C08CF0100CC8
:1031C0005CEA0B0C05D00EE040228DF804200122B1
:1031D00008E050EA010306D030238DF804308DF862
:1031E000052002229146009B83F0080353EA0B035B
:1031F0000AD150EA010201D1620705D530228DF8CB
:1032000004204FF001097F1E3278582A04D039A2D9
:103210000C920CAA02920BE03BA2F9E75B46009AE3
:10322000FDF708F80C9B9B5C029A521E02921370E9
:1032300050EA0102F2D1029804A9081A00F1200B09
:10324000600702D524F4803400E001275F4502DDE9
:10325000A7EB0B0000E0002000EB0B0100900398AF
:103260004944401A0390E00306D453462146179A76
:10327000039800F0A9F90544002706E001A852468A
:10328000C05D179990476D1C7F1C4F45F6DBE0032E
:103290000CD553462146179A039800F095F905443A
:1032A00004E030205246179990476D1C0099481E43
:1032B00000900029F5DC08E0029802995246007857
:1032C000491C0291179990476D1CBBF10001ABF1AD
:1032D000010BF1DC5BE100F065F90544761C307808
:1032E00000287FF40DAE19B02846BDE8F08F00002D
:1032F00009280100303132333435363738396162CC
:10330000636465660000000030313233343536378F
:10331000383941424344454600000000600700D46C
:10332000062708F1070020F00700F0E80223804696
:1033300003F0004C5FEA0C0001D097A009E02005E3
:1033400001D596A005E0E00701D095A001E0AFF21D
:103350004C001390307823F0004365280CD006DC35
:10336000452809D046281DD047287FD13BE0662854
:1033700018D067287AD136E00021112F01DB112007
:1033800000E0781CCDE9000104A90CA8FFF750FB70
:10339000DDE90D010C9A4FF0000B07F101091092C5
:1033A00000914EE04FF000400097CDE9011004A9D4
:1033B0000CA8FFF73DFBDDE90D020C9B0F994FF0C8
:1033C000000B91461093009211B9791C00EB010992
:1033D000B7EB090003D4C0F1FF3B07F10109A9EBEA
:1033E0000700019042E0012F00DA01270021112F90
:1033F00001DD112000E03846CDE9000104A90CA848
:10340000FFF716FBDDE90D010C9A00914FF0000B60
:10341000B946109221070FD4009A4A4503DA914623
:1034200001E0A9F10109B9F1010F05DD109AA9F137
:103430000101515C3029F4D0B84202DA10F1040FD6
:1034400003DA0121CDE9011010E0002803DC8344F8
:10345000A9EB000102E0411C494500DD8946A0EBD3
:103460000B00401C01904FF000400290200705D453
:103470000198484502DB4FF0FF30019000208DF8A5
:103480004B0002980DF14B07B0F1004F25D0022000
:103490000C902B200D90029800280CDA40420290EC
:1034A0002D200D9007E00A210298FCF713FF303120
:1034B000029007F8011D0C99481E0C900029F2DCBF
:1034C00002980028EFD1791E0D980870307800F02E
:1034D000200040F0450007F8020D11A8C01BC01DD8
:1034E00002901398007800B1012000EB09010198C7
:1034F00001EBE071029801440398401A401E0390CA
:10350000E00306D453462146179A039800F05CF86E
:1035100005441398007818B15246179990476D1CCE
:10352000E00323D553462146179A039800F04CF840
:1035300005441BE0BBF1000F07DB0098584504DD94
:103540001098179910F80B0001E017993020524697
:10355000904701980BF1010B401E05F10105019008
:1035600004D12E205246179990476D1CB9F10001E5
:10357000A9F10109DEDC05E017F8010B52461799A5
:1035800090476D1C0299481E02900029F4DC5346B6
:103590002146179A03989EE62D0000002B0000009C
:1035A000200000002DE9F041044600251E46174684
:1035B000880404D405E039462020B0476D1C641E01
:1035C000F9D52846BDE8F0812DE9F04104460025F3
:1035D0001E469046C80301D5302700E02027880406
:1035E00004D505E041463846B0476D1C641EF9D548
:1035F0002846BDE8F08130B5A9B1C0F3C612C0F3CA
:1036000082352A44C0F34154C0F3434302FB01F026
:10361000042B00F1070020F0070020FA04F004D08A
:10362000082B07D104E0002030BD00EB021001E0C0
:1036300000EB0220C01DC00830BD0000C0F34341B4
:1036400002294FF0400130B519D02F4A20F07E44B6
:103650000D019442A4EB020347D024DC2B4A944290
:10366000A4EB020341D017DC402C42D0403CB4F51F
:10367000802438D0AC423CD12449C91F39E0C0F382
:10368000C051C0F3C612C90500F07F0341EAC21160
:10369000194341F480212CE0A3F54073F93B16D087
:1036A0000F2B26D123E0B3F5006F14D006DCAB421C
:1036B0000FD0A3F58063073B1BD10EE0A3F5006399
:1036C0000F3B0DD0124AD34213D1124911E01249D7
:1036D0000FE012490DE012490BE01049C91D08E046
:1036E0000F490F3105E00F4903E0114601E00A4997
:1036F0000F3100F0804200F000530A43134300F002
:103700000060184330BD00004000840047040400FE
:103710000FF801FF401082014008040040048400BB
:10372000400884004000040030B58DB00C460021F4
:103730000546144800F06CFD10F0FF0F01D012A1F7
:103740001DE0164930226846FCF7A5FD0A9469463B
:103750000C4C0495206800F099FD38B110492068A0
:1037600000F068FD38B10DB0002030BD206800F0D9
:103770005FFD0CA103E0206800F05AFD0DA100F0F0
:1037800005FD0000980A002061695F6E6574776F1F
:10379000726B5F63726561746500000078190408DC
:1037A0004C0B002061695F6E6574776F726B5F69A7
:1037B0006E69740061695F6E6574776F726B5F67C5
:1037C00065745F6572726F720000000009A108B530
:1037D0000968009148B101789DF80020914204D118
:1037E00004226946FCF769FD08B1002008BD0120EC
:1037F00008BD0000038404842DE9FF4F83B09B467D
:1038000016ACDDE9112094E80803B0FBF2FADDE91B
:103810001361DDF840E0049FDDF854C0BE45199DFA
:1038200003FB06F003FB0197ACEB0804A6EB0503D2
:103830009FED3C0A03FB02F304FB01F400FB02F0E2
:10384000A1EB05060094CDE90163059B0BEB870115
:10385000F7EE000A03EB80034FF0000900FE201A88
:1038600003EB820B58E0002753E000BF0EEB890406
:103870001846002694ED000A20EE010A3CE000BF45
:10388000002425F0030C21E0D1ED002AD0ED003A10
:1038900000EB820091ED012A02EEA30A90ED003ABE
:1038A00000EB8200D1ED021AD0ED002A00EB82007D
:1038B00002EE030AD1ED030A90ED002A1031241D17
:1038C00000EB820001EEA20A00EE820AA445DBDCD6
:1038D00009E000BFF1EC010AD0ED001A641C00EB16
:1038E000820000EEA10AAC42F4DB029C761C00EBE5
:1038F0008400019C01EB84014645C1DB04987F1CD8
:1039000000EB8904009809F1010984ED000A01EB3C
:1039100080015745AAD31B1D9B45A4D807B0BDE81D
:10392000F08F0000000000002DE9FF4F84B09C469E
:103930004FF00008DDF864A0059ADDE91119DDF803
:1039400070E09142179AB9FBFAF1DDE91503DDE960
:103950001347179EB4FBFAFB01FB02F50EEB0002C6
:10396000A2F1010292FBF0F41A9A1A44A2F10102A8
:1039700092FBF3F202FB064200FB09F402FB01F2A8
:10398000A4EB01040CEB820203FB07FC9FED450A4C
:103990009EFBF0F60294F7EE000A40FE200A00FBC0
:1039A00016E4A0EB040494FBF0F600FB164E1D9CFD
:1039B000179EA4EB0E040444A4F1010494FBF0F45C
:1039C000A6EB040600FB14C006FB01F600FB09F0A1
:1039D000019603901A9890FBF3F603FB1600A3EBF5
:1039E000000090FBF3F603FB16001A9E06EB000C9A
:1039F0001B9EA6EB00000CFB07E61844A0F101009B
:103A000090FBF3F7189806FB09F6A0EB070005FBFF
:103A100000F50698009500EB860E4046504581461D
:103A20003CD2002633E01198002500EB8803704655
:103A300093ED000A20EE200A1CE0002311E000BFF5
:103A400000EB810C06E000BFF2EC011AB0EC011AA9
:103A500001EE810A6045F7D3DDF808C05B1C00EB7E
:103A60008C00A342ECDB039B6D1C00EB8300019BED
:103A700002EB8302BD42E0DB0598761C00EB880375
:103A8000009808F1010883ED000A02EB80025E4510
:103A9000C9D30EEB810E09F10100BFE708B0BDE804
:103AA000F08F0000000000002DE9FF4F2DED020B0C
:103AB00082B0DDE914E8DDE91709119ADDF84CB0B0
:103AC00000FB08F0199C5043002703EB800A9EE09E
:103AD0006142002900DC0021ABEB0403434500D325
:103AE0004346661801FB02F0591AABEB0105564339
:103AF00055430195A8EB010302FB01F506990AEB7A
:103B00008000534301EB860100930026F0EE400A4B
:103B100070E000BF002325F00F0C58E091ED004A43
:103B2000D0ED004AD1ED011A90ED011A44EE840A5D
:103B3000D1ED023A90ED022A91ED033AD0ED032A3D
:103B4000D0ED044A41EE210A91ED054A90ED051AA7
:103B5000D1ED071A42EE230AD0ED063A90ED072A7E
:103B6000203042EE830A91ED043AD1ED062A20314D
:103B700044EE830A41EE040A43EEA20AB1EC043A91
:103B800042EE210AB0EC041A41EE030A90ED013A2C
:103B900091ED021A41EEA30AD0ED001AD1ED013ADF
:103BA00042EE040A90ED024A91ED032A42EEA40A85
:103BB000D1ED004AD0ED032A10301031103341EE20
:103BC000A40A43EE230A44EE010A42EE820A9C450F
:103BD000A4DC06E0B0EC011A5B1CF1EC011A41EE2A
:103BE000210AAB42F6DB019B761C01EB8301009BB3
:103BF00000EB83004E458DDB05987F1CC0ED000A6D
:103C00001299059800EB810005901A9804447745B5
:103C1000FFF45EAF08B0BDE8F08F00002DE9FF4F64
:103C200089462DED028B8FB0DDE92824DDE91EA643
:103C3000DDE92C01DDE920754843DDE926B1511AA3
:103C40000E91BBF1010F01D1012805D0B34501D17F
:103C500001286FD0002010E127992A98149A08446F
:103C6000DDF850B0DDE923136843A2F10062594347
:103C7000B2F1807F9FED838A00FB06F0139A01FB6F
:103C800006F802EB8000CDF834A0CDF828900C9017
:103C900032D2002028E000BFBAF1000F04D00D9806
:103CA000B0EC010A0D9001E0B0EE480A259822AB75
:103CB0000E990DF10C0C279ACDE90840CDE90621AB
:103CC00093E8070000965B468CE80700CDE9017594
:103CD0000C9A0A991198FFF7E7FE0A980BEB880BEC
:103CE000001D0A9009F10100B8428146D4D30FB0FB
:103CF000BDEC028BBDE8FF8F4FEA8800FEF7F0FDB8
:103D00000B90002036E000200AE000BF0B990BEB7F
:103D1000800292ED000A01EB8001401C81ED000A57
:103D20008045F3D8BAF1000F05D00D98B0EC010A28
:103D30000D9002E02AE0B0EE480A259822AB0E99D9
:103D4000279ACDE90840CDE9062193E8070003ABA7
:103D5000009683E80700CDE901750C9A1198DDE91A
:103D60000A13FFF7A1FE0A980BEB880B001D0A90BF
:103D700009F10100B8428146C5D30B980FB0BDECE4
:103D8000028B04B0BDE8F04FFEF782BC002033E0A8
:103D90006042002800DC00202B9A291B914200D3AE
:103DA00011462A9A2318BAF1000F02FB0532139B21
:103DB00002FB06F203EB820201D0D44600E0CC46BF
:103DC000DDF89C800B1A0E99CDF818800993CDE987
:103DD0000710DDE92301CDE90275CDE90401CDE944
:103DE00000C6149B49461198FFF706FD259809EB7C
:103DF000870904440BF10100229983468842C7D306
:103E000075E76042002800DC00202B9A291B9142B4
:103E100000D311462A9A2318BAF1000F02FB05328B
:103E2000139B02FB06F203EB820E01D0524600E028
:103E30004A46DDF89CC00B1A0E99CDE90A10CDF860
:103E400024C00C93DDE923312C98DDF8B4C0CDF803
:103E500014C0CDF820B0CDE90631CDE903508DE88E
:103E6000C400149B724611984946FFF75DFD2598E2
:103E700009EB8709044408F1010022998046884231
:103E8000BFD334E7000000002DE9F0478246089DCB
:103E900025F00100EC0803EB80069FED460A5AE08E
:103EA00051F8040BD3ED001A00F0FF0C0CF00F08D2
:103EB0004FEA1C1793ED014A02EB870CC0F3072968
:103EC000DCED000A02EB880C4FEA191700EEA10A9C
:103ED0009CED001A02EB870C93ED025ADCED000A10
:103EE00009F00F0801EE040A02EB880C93ED033A87
:103EF000DCED002AC0F30747D3ED044A00EE850A43
:103F00004FEA171807F00F0702EB880C02EB870740
:103F10009CED002A02EE830A000ED3ED053AD7EDA0
:103F2000001A4FEA101C00F00F0702EE240A02EB01
:103F30008C0093ED064A90ED001A02EB870093ED9A
:103F4000075A01EEA30AD0ED000A2033641E01EEE9
:103F5000040A00EE850A002CA2D115E011F8010B2D
:103F600093ED002A93ED011A040900F00F0002EB13
:103F7000840402EB8000D4ED001AD0ED000A08336F
:103F800001EE820A00EE810AB342E7D3E80709D0C6
:103F9000087893ED001A000902EB8000D0ED000ACA
:103FA00000EE810ADAED000A30EE800A8AED000A9E
:103FB000BDE8F08700000000F0B59FED3D0A059DCB
:103FC00003EB8504103C05F0030527E00E7893ED24
:103FD000001A4F7802EB8606D3ED012AD6ED000ACF
:103FE00002EB870611F802CF00EE810A96ED001A67
:103FF00002EB8C0791F801C093ED022AD7ED000A7D
:1040000002EB8C0601EE220AD3ED031A891C103351
:1040100000EE820AD6ED000A00EEA10AA342D5D92D
:1040200015B3012D04D0022D0CD0032D38D11CE086
:10403000097893ED001A02EB8101D1ED000A00EE40
:10404000810A2DE00C78D3ED001A497802EB840444
:10405000D3ED010A94ED001A02EB810101EE210A71
:1040600091ED001A01EE200A1AE00C7893ED002A77
:104070004D7802EB8404897893ED011AD4ED001A8F
:1040800002EB850402EB810101EE820A94ED002A25
:10409000D3ED020AD1ED001A02EE010A01EEA00AE8
:1040A000D0ED000A30EE800A80ED000AF0BD00007D
:1040B00000000000F0B5042BDDE9055400EB84049A
:1040C00027D0082B27D12FE06E08002312E00F78AD
:1040D0003F0902EB870797ED000A80ED000A11F80F
:1040E000017B07F00F0702EB870797ED000A80EDD1
:1040F000010A0830B34203F10103E8D3EB0708D00B
:1041000011F8013B1B0902EB830393ED000AA0ECBD
:10411000010AA042D8D3F0BD11F8013B02EB8303A2
:1041200093ED000AA0EC010AA042F5D3F0BD10B552
:10413000016904468847E068A04200D1002010BD14
:1041400070B5856D0446016DADB1002912D0012016
:104150006165E26DA8470220E26D616DA847606D60
:10416000FFF7E5FF014660650320E26DA847606D3B
:104170000028F0D170BD0029FCD06165606DFFF7AB
:10418000D6FF00286065F9D170BD00004FEA10220B
:1041900031B11346C0B2024604A0FEF7C9F903E0EC
:1041A000C1B20FA0FEF7C4F9FEE7000054454D5020
:1041B0004C415445202D204572726F722028257382
:1041C00029202D20747970653D3078253032782093
:1041D000636F64653D3078253032780D0A00000049
:1041E00054454D504C415445202D204572726F72FC
:1041F000202D20747970653D307825303278206329
:104200006F64653D3078253032780D0A000000007B
:104210001CB500230322CDE90023024A012300F04C
:10422000D3F81CBD84060020004870474C55000898
:1042300000F000B930B59DB00C46054600F0ACF872
:10424000FCB1F0B1104974226846FCF724F800F084
:104250008FF9049000F094F9059000F093F809901C
:1042600000F0A8F869460A90284600F02DF80028CA
:1042700005D0742269462046FCF70DF801201DB0D8
:1042800030BD0020FBE70000D85400082DE9F041C4
:104290000D46064600F0DCF8040010D0294600F078
:1042A00057FE05F118010746204600F017FE00EA08
:1042B0000704304600F00BF92040BDE8F0810020F3
:1042C000FBE700F024B9000070B50C4600F064F87C
:1042D00005000DD064B10020E066286D50B1E16E9C
:1042E000491CE166C168814204D019B10846F6E76D
:1042F000002070BDE06E80B1B5F8480000B1E86CF8
:1043000004F13401FEF73EFB208648B1B5F84800C1
:10431000012808D9E86C0C3006E0182211212AE0A7
:104320001822122127E0002004F13801FEF72AFBB1
:104330006086F0B16868182205F13001206704F149
:104340003C00FBF7A8FF182205F1180104F1540006
:10435000FBF7A1FFFCF75AFA0948206100F010F9B9
:10436000606100F00FF8606200F024F8A0620120A4
:1043700070BD18221321284600F0F4F8B8E70000B9
:104380007C450008034810B50469FCF73FFA204655
:1043900010BD0000C827040810B518B1044A016810
:1043A000914200D000200446FCF730FA204610BDB0
:1043B0000001C0A1034810B54469FCF727FA204664
:1043C00010BD0000C82704082DE9F84305469146B2
:1043D0001A064FF00008DDE90810444642EA0141A0
:1043E00041EA0027FCF712FA0F4E65B10F49C9F8F0
:1043F0000010C5F8009000F0E0F838B1B7F1827F06
:1044000006D974680CE0F069BDE8F883346807E009
:1044100007A0006800906846FFF7D8F910B9B468A3
:10442000C5F800802046EFE7C82704080001C0A1B6
:104430000384048410B5FFF7AFFF20B1BDE810403E
:10444000103000F0B4B80148806910BDC8270408D6
:1044500070B50C46FFF7A0FF050004D02CB1A16A8F
:10446000206929B10CE0002070BD1122102111E05B
:10447000218CE28B636A5143594301D0132207E038
:1044800058B92089E188E2684843504305D0122298
:104490002846102100F066F8E5E71822214605F1CC
:1044A0001800FBF7F8FE182204F1180105F130009E
:1044B000FBF7F1FE0320E860286D30B1C16885602C
:1044C000814202D009B10846F8E7284670BD70B5B0
:1044D000FFF762FF041E08D0207B800706D410225D
:1044E0002046112100F03EF8002070BDA06D60B1A3
:1044F000256D55B1D4E91632002029469847E86861
:10450000A84202D008B10546F4E7012070BD70B59D
:1045100015460E46FFF740FF04462A463146FEF791
:1045200049FB00281DD0B4F8480008B1E66C00E053
:104530000026012802D9E56C0C350DE000250BE0C2
:104540003046FEF75EFC2046FFF7FAFD2846FEF7F0
:104550008EFCE08A401CE082E08AA18A8842EFD388
:1045600080B270BD002802D0103000F03EB8704715
:1045700010B5FCF74BF901A010BD000000000000D1
:10458000034810B5C468FCF741F9204610BD00008F
:10459000C8270408016802460120090A04E053689C
:1045A000491E53F8213058430029F8D1704701685B
:1045B000002202700260084670470120704720B157
:1045C0008069D0E90001FFF716B80120704710B1EB
:1045D00080698068704709B188687047002070471B
:1045E000002801D0406980687047037813F0FF0FFE
:1045F00001D0002070470170016862F31F21016043
:104600000120704710B504460420FCF703FF014861
:10461000046010BDB40A002070B5002405464FF4B4
:104620007A7603E0304600F005F8641CAC42F9D31A
:1046300070BD00000B49002270B54FF0E0240968FE
:1046400065694843A369A1699942FCD002D2A3EBF2
:10465000010302E0A5EB010633441A440B468242F3
:10466000F1D370BDB40A00202DE9F04F0446406933
:10467000BDB0018809B1426800E0002252682AB149
:1046800009B1426800E0002252681268012991468F
:1046900002D942680C3200E0002252683AB1012986
:1046A00002D942680C3200E00022526812680229E6
:1046B000099202D94268183200E00022526842B1E1
:1046C000022902D94268183200E0002252681568B7
:1046D00000E0002502290BD9426812F1180F07D01B
:1046E00032F8183F012B03D9526812B1526800E02A
:1046F00000220229934602D94268183200E00022C3
:10470000526842B1022902D94068183000E0002006
:104710004068866800E000260999A06BBBF1000F95
:10472000A28C238DD1F80CE092B20788B0F804C0B7
:104730000189DEF804A01A9289B2B0F80C8098B210
:10474000A28D2690B8B2238E92B208901FFA8CF0F8
:10475000D9F818703690D9F80C900C911FFA88F19E
:10476000D5F818C00B91E9682992226DD9F8040098
:104770001E9098B22590B868199048681C90886877
:104780001B9010680A9050683A90DCF80800079077
:10479000DEF80C002C90DEF808002A90D9F80C0006
:1047A0002390D9F808002090A0692B90E06B3890F6
:1047B000606C3790A06C179003D0DBF8180080680D
:1047C00000E000202F90E1693046FFF700FF074628
:1047D00024903046FFF704FF35903046FFF7EFFE98
:1047E0003B90206A00B9BF48A969299E8846259A4E
:1047F000761E0968521E1F90606D3490C1F3C61377
:104800001B9D206CAC4614906D1E002005FB02C25F
:10481000239D2192AD1A089A15440C9A1544269AA4
:10482000B5FBF2F21C9DAC466D1E05FB06C5C1F33F
:1048300041562295C1F3434C209902F1010B369A5F
:10484000491B0A440B99F3400A441A99BCF1040F1E
:10485000B2FBF1F102D0BCF1080F24D1D8F80C2042
:104860000AB361690D88032D02D94E68243600E031
:10487000002676685EB1032D02D94868243000E036
:1048800000204068406810B181698D6800E0002513
:1048900081691E984968CDE90001D8F808102846BA
:1048A000FFF708FC05B9079D099A0A98616900B2EB
:1048B000926981461895CDE927200022CDE92D2265
:1048C0000888032802D94A68243200E0002252688E
:1048D00042B1032802D94868243000E00020406833
:1048E000056800E0002508984042AA69E96816902A
:1048F0009468D1F80880E6E0BBF1000F5BDD169804
:10490000369940420028C1F1000E00DC0020169AC2
:104910002399891A219A914200D31146259ADDF8EC
:1049200058C016B2299ACDF830C013B2229A0F9609
:10493000CDE90D2309AB2B9A089283E803401AAB0B
:1049400093E80700CDE90610CDE9048220982146BE
:104950001E9A2F9BCDE902A0CDE900320020DDE9AF
:104960001832FFF75BF900261CE0A8693B46524667
:104970008460A869DDF87CC00146E04735983B9922
:1049800007442498381A884200DB249F04EB8A04E9
:10499000A8694168C26802EB8100A04201D8A4EB7B
:1049A0008104761C4645E0D3A86909F101010FFA9C
:1049B00081F9C1688160ABF101005FEA000B3DD570
:1049C0000AFB08F0AA69234600FB09F0D168A4EBB2
:1049D0008000814202D9526800EB8200814210D2ED
:1049E00014990AB2914505D10BE000BFB0EC010A61
:1049F000A4EC010AA969CA68496802EB81018142F5
:104A0000F4D8179AA969149802FB08F2A0EB0906DA
:104A10002E98179C02FB0AF20644C86849684C4469
:104A20000FFA84F936B22E9603EB820400EB810074
:104A300002E000BFA4EB8104A042FBD91498814599
:104A40003DD32D9805AE17990123401C2D90A9EB5D
:104A50000100279A0FFA80F92A9881B217980892D4
:104A600080B286E80B00379802AE289982B23A9855
:104A7000149B89B280B29BB2019386E807003898F4
:104A80001FFA8AF32E9980B200901498349E411A2E
:104A9000A8698AB21FFA88F1B0472A980AFB00F188
:104AA00027988368179803EB810102B22898801A2F
:104AB000279A0028916000DC002000B228902699F7
:104AC000169808441690DDE92C018142FFF414AFDA
:104AD000A869C168816027982799C06888603DB03F
:104AE000BDE8F08F954D00082DE9F04F2DED028BBC
:104AF00091B04069018809B1426800E00022526823
:104B00002AB109B1426800E0002252681268012906
:104B100002D943680C3300E000235B683BB10129F4
:104B200002D943680C3300E000235B681B6802294C
:104B300002D94468183400E0002464683CB10229BA
:104B400002D94468183400E000246468246802290B
:104B5000A0460BD9406810F1180F07D030F8181F85
:104B6000012903D9406810B1406800E00020D468F2
:104B7000D9680A906068059048680790D1E90201F9
:104B800000FB01FBD8F81810002006900868C0F35D
:104B9000C614C0F34155C0F34340EC4004280F94C1
:104BA00001D0082801D1C86806909B69D8F8141074
:104BB000926907989C68D1F804A004EB800790687C
:104BC0009FED2C8A039000204CE000BFD8F818100D
:104BD0000A988E6810B18069856800E00025069803
:104BE000C0B91DE015B1B5EC010A01E0B0EE480A0C
:104BF0000F9831468DED0B0A039B04280598069A01
:104C000000900BA809D0FFF7D7F99DED0B0A564489
:104C1000A4EC010ABC42E5D31AE0FFF735F9F4E74A
:104C200003980B9012E015B1B5EC010A01E0B0EE6B
:104C3000480A8DED000A059B31460B9A6846FDF740
:104C4000ABFC9DED000A5644A4EC010ABC42EAD339
:104C50000599039800EB81000390079807EB800704
:104C600009F1010058458146B0D311B0BDEC028B6B
:104C7000BDE8F08F0000000070B50546406901886E
:104C800009B1426800E00022526832B109B14268BD
:104C900000E000225268146800E00024012902D9D3
:104CA00042680C3200E00022526842B1012902D968
:104CB00040680C3000E000204068066800E00026F4
:104CC000A86978B14068012804F1080016D0FFF700
:104CD00061FC0246A869A1698368B069BDE87040BB
:104CE00000F0CCB904F10800FFF754FCA1690246BA
:104CF000B0690023BDE8704000F0A6B9FFF74AFC98
:104D00000246A869A1698368B069BDE8704000F0F7
:104D100015BA2DE9FC414069018809B1426800E0FB
:104D20000022526832B109B1426800E000225268A4
:104D3000146800E00024012902D942680C3200E026
:104D40000022526842B1012902D940680C3000E0CB
:104D500000204068056800E00025E168E8684E68CA
:104D6000476804F10800FFF715FCCDE90067A16969
:104D70000246A869334600F003FABDE8FC81000052
:104D80000349CA695206FCD5C2B28A627047000064
:104D900000100140704700002DE9F0410B3020F079
:104DA0000706104D19E02068B04215D3B0420AD969
:104DB000871B201DD4F80480FBF76DFAA019C0E909
:104DC0000078286004E060682860201DFBF763FA23
:104DD000201D2660BDE8F081251D2C68002CE2D145
:104DE0000020F7E7C00A002070470000F8B5BFF3C5
:104DF0004F8FBFF36F8F344800240460BFF34F8F91
:104E0000BFF36F8F3149086840F400300860BFF38A
:104E10004F8FBFF36F8F2D4870300460BFF34F8FFB
:104E2000001F43F6FF7C0068274D1035C0F34E325B
:104E3000C0F3C9030CEA4216184600BF46EA807761
:104E40002F60401EFAD2521EF4D2BFF34F8F086873
:104E500040F480300860BFF34F8FBFF36F8FFBF7D4
:104E600069FF0923022219214FF4D870FDF7ACF82D
:104E70004FF4E13000F0FCFAD820FFF7C3FB00BF8D
:104E8000FCF762FE0028FBD1FCF7E8FE1048016841
:104E900041F001010160006801210E4A00F00100AB
:104EA00000900D48026004714471446184610162A4
:104EB000FBF776FD08B172B6FEE7FCF7D1FDFCF713
:104EC000EDFD0020F8BD000050EF00E014ED00E023
:104ED000303802400030024040700020F0B50869D0
:104EE00000221A4DC01C20F0030005F1100700F548
:104EF0009F51A96005F1C004E960B96004F1100692
:104F0000F96004F12003A26000F5C071E260F035A1
:104F1000B1604034F16000F5C8619860D86030330A
:104F2000A960E9603035A06000F5F071E0603034D0
:104F30009960D960A860E86000F5A870A060E060A2
:104F400003F130008260C2600120F0BD3405002012
:104F5000F0B5384E086906F11002374F02F1100320
:104F6000364DD6F800C0074402F12004DFF8D0E047
:104F70004CF0804CC6F800C000F5713CC6F808C083
:104F8000C6F80CC00544D2F800C002F130019760A9
:104F900000EB0E064CF0804CC2F800C0D7604032E7
:104FA000D3F800C09D604CF0804CC3F800C0DD60B9
:104FB00042F63005D4F800C04033A66005444CF0FA
:104FC000804CC4F800C01F4FE66042F2F076D1F882
:104FD00000C007448F6040344CF0804CC1F800C0E2
:104FE000CF600644176800F51C71956000F5167CCB
:104FF00047F080471760D56030321D689E60DE60E4
:1050000045F080451D6030332568A16045F080453E
:105010002560E1601168C2F808C0C2F80CC041F018
:10502000804111601968986041F080411960D86032
:105030000120F0BD54050020E0B6030090B5030048
:10504000101803003016030030B58D686FF00303AD
:10505000846803EB8202A8189FED070A224407E048
:10506000D0ED000A001FC0FE200AC2ED000A121F88
:105070008B688342F4D930BD0000000030B5D3ED19
:10508000021A8D686FF0030493ED000A93ED011A84
:10509000F5EEC01A04EB820480682A19F1EE10FACA
:1050A000204444D2B5EEC01AF1EE10FA0FD112E04E
:1050B000D2ED000AF4EEC00AF1EE10FA03D270EE5F
:1050C000C00A60EE810AC0ED000A001F121F8B6843
:1050D0009342EDD930BD9FED181A0CE0D2ED000AD5
:1050E000F4EEC00AF1EE10FA01D2F0EE410AC0ED82
:1050F000000A001F121F8B689342EFD930BD00BF1A
:10510000D2ED000AF4EEE10AF1EE10FA09D2F4EE63
:10511000C00AF1EE10FA06D270EEC00A60EE810A03
:1051200001E0F0EE610AC0ED000A001F121F8B685B
:105130009342E5D930BD00000000000070B58E68D4
:105140006FF00304856804EB8202B0189FED0B1A20
:10515000D3ED000A2A440CE090ED000AB4EEE00A18
:10516000F1EE10FA01D2B0EE410A001F82ED000A02
:10517000121F8B688342EFD970BD00000000000051
:105180002DE9F0470C46896806468068DDE90898F5
:1051900001EB82019A4600EB8202A1EB8905A2EBAA
:1051A00088070BE0A5600023524621463046B760D1
:1051B00000F00CF8A5EB8905A7EB8807E068A8428A
:1051C000F0D9A060F068B060BDE8F0872DE9F0414B
:1051D00015462DED028B8E6887680120DFED1C8A55
:1051E00096ED008A07E000BF06EB8001401C91EDC0
:1051F000000A88FE008AA842F6D300240FE000BF10
:1052000006EB840090ED000A30EE480AFDF76EFAD6
:1052100070EE288A07EB8400641C80ED000AAC4223
:10522000EED3F7EE000A002080EEA80A09E000BFE6
:1052300007EB8001401CD1ED000A60EE800AC1ED51
:10524000000AA842F4D3BDEC028BBDE8F081000057
:10525000000000002DE9FF4F84B0DDE9175BDDE9B8
:10526000159E149AABF10101199E01FB0EF1B6686F
:105270008A1A12990A440699541A691EDDE91372B2
:1052800001FB09F1A4F10104009624B23A43DFEDD9
:10529000580AD0F808801398A1EB00011198014436
:1052A0000598A1EB0000A0F1010000B24AD100284E
:1052B00048DA002C46DA00213FE0129801FB0E008C
:1052C0000FFA80FA002034E0119A002400FB092232
:1052D00017B22AE001FB0EF600FB09F236B212B259
:1052E0000192B0EE600A13E0019A0DE0DDF814C0FF
:1052F00006FB0C2C521C12B203FB0C4C08EB8C0C62
:105300009CED001A80FE010ABA42EFDB761C36B231
:105310005645E9DB01FB050203FB0246009A641CCB
:1053200024B202EB860282ED000A9C42D2DB401CD2
:1053300000B2A842C8DB491C09B25945BDDB08B020
:10534000BDE8F08F002450E004FB0EF01499401AE1
:1053500003901299002208440FFA80FA41E000BF3E
:1053600002FB09F01399401A029011990026084493
:1053700007B232E00398B0EE600A01B2029800B2C0
:1053800001901DE0019817E0002913DB002811DBD4
:10539000DDF818C061450DDADDF814C0604509DAA2
:1053A00001FB0C0C03FB0C6C08EB8C0C9CED001A45
:1053B00080FE010A401C00B2B842E5DB491C09B27C
:1053C0005145DFDB04FB052003FB00610098761CE0
:1053D00036B200EB810080ED000A9E42CADB521C0F
:1053E00012B2AA42BCDB641C24B25C45ACDBA6E76B
:1053F000000000CF10B5002190ED000A0C4600BF60
:1054000000EB8402D2ED000AF4EEC00AF1EE10FACD
:1054100002DDB0EE600A2146641CE4B20A2CEFD330
:1054200007A0DFED060A20EE200AB7EEC00A53EC13
:10543000102BFDF77DF8002010BD00000000C842D1
:10544000546865206E756D626572206973202564ED
:1054500020616E64206974277320706F73736962B2
:10546000696C69747920697320256625250D0A0009
:105470000849002230B4064C0C230C60C1E901023B
:10548000CA6008460A61C1E9053230BCFCF792B82F
:10549000001001402C71002004000000D802002000
:1054A000040000003003002004000000740300200A
:1054B00004000000B403002004000000F8030020F2
:1054C0000400000038040020040000007C040020D8
:1054D00004000000BC0400207C28040858280408AC
:1054E00024280408402804080000000000000000F0
:1054F0001828040805020000010300000000000055
:1055000000000000C08D0600000000000000000048
:10551000000000000000000000000000000000008B
:10552000000000000000000000000000000000007B
:10553000000000000000000000000000000000006B
:10554000000000000000000000000000E2904E3B60
:10555000A5014F3DE5CC103E45D34BBEF5C435BE4D
:10556000430E8B3E24AE593E62F853BDBDA2C3BE6E
:105570009CD171BEACCCCB3DB1D4843E25A2DF3CE6
:10558000D67668BEC93A8BBED0F16C3EA43962BCF7
:1055900032F1D4BDCA45DD3D2D4002BE9A203B3ECE
:1055A0004A1E153E2D47513D9183533EA0578C3ADC
:1055B000B771EEBD92039D3DF4DC87BE25E842BE87
:1055C00060054BBE77A1013D3CB5D03ECABABC3E9A
:1055D000AC3642BE3D561CBDD0F7643E0CC1733D97
:1055E000FFACD83E2DB85E3EA7EA233E24C693BE4C
:1055F000EE4BF7BD24C93B3EE817683E1BBC173E87
:10560000BD0AA7BD100A943D1EFCD83C4B42A53DE7
:105610005677303D4DF1A63DE0F13F3E03C88D3E4B
:10562000B218CB3E8E06853E941C1C3EE6C48D3ED1
:10563000D8B72D3E538B983E2D71993E4FB208BE80
:105640006EDD803DDE590FBE676527BDFA49373EE6
:105650001F3789BE39E79EBEE79582BE50D278BE1D
:105660004539EB3D5B7197BE770EADBE97DEC0BE90
:10567000AD139ABE09296DBEE64D553D7FF7A33E99
:10568000266AC43E1597C33D044CD8BD05398B3DF1
:1056900068D4A23DDE23A6BED1FAD3BEAD161EBE8F
:1056A00059285BBEA7C1FEBEAD8E06BFB2FE3CBE92
:1056B000A3CE353DB43802BE840D9BBE98B1C7BDA4
:1056C0001F85B13EAA3E8B3E3F9F683EDF228A3E49
:1056D0009446D73E4D97A83EC87283BD5A24F3BD69
:1056E0005BF99C3D1B15613E12AEE83D393F303EF3
:1056F0008187D8BD58203C3E72AC7B3ECAE18D3DCF
:105700008801E6BD7BA1363EE24B8B3C8C16813E88
:10571000AEB3023E0011F2BE2009003CBA10463E74
:1057200043696E3ED4E868BEDB34FEBE9C794FBD53
:105730009020383E1BCCFD3DFD188BBE967C94BE60
:105740009189043E30AE083EA75C163E19640BBE3C
:105750008DACE8BDBDFCB4BEFC1421BEC2310F3E11
:10576000416D8B3E346A513D67A584BE7B9A163DE0
:105770004BDD283E0C42063E0D4337BE6FB676BC6D
:1057800002274D3E1504393E6C61B83D547186BE0A
:10579000EF4514BEF1F95D3E01123BBE7148153E66
:1057A0003070103E546681BC5A0AA4BDEBB69B3DD6
:1057B0000E0245BC7D2273BDD146BEBDECB3CC3DCF
:1057C000250859BEC6C393BD91F0D8BDCFC6A2BDB2
:1057D00021DA123D3893313D77C3DDBD04948EBD8F
:1057E000F07F84BD85A3D6BDD8944DBE01FB2CBEF1
:1057F0006CE1C7BD7896033C4260493DCE68CCBDA4
:105800006CA6953DD1B3A43DC2809DBC5CB3193D4F
:10581000802B8EBD7F55CBBC2FEA5B3DC3B4D43DFE
:105820000164ECBC147B4E3E7540BEBDC67545BDE3
:1058300005C1AD3DCCA8C03CE7E9D73D89A25BBD21
:1058400005DF093E4A16A7BCC0E43B3D472DF13CAD
:10585000E319C63D73E77EBEC498503E73FED0BCCC
:10586000F8D1EDBCB4C9BEBDE925C3BD01A605BED6
:105870004D42543E0C97B53D08C8083EFC89C43DD6
:1058800092B002BEE853333DEE4FF73DDFC29F3D7D
:105890006EABFABD0023C2BDAFFA05BE5459EB3D55
:1058A000ACCB5DBEFD70B3BDFFD101BE8F99933D02
:1058B00056EC363E0D09ADBD721018BD62562DBEB8
:1058C00015390C3EA9C2BEBD5DADF63D9A3044BE51
:1058D00094673DBE2245963D97B2DF3D1D900CBCBE
:1058E000C712033E69D048BD0B773B3D1C39B9BD9B
:1058F000145F1CBEB333093E775A293E0C0D9BBE84
:10590000BB3FD23DFE26AF3D3486B6BB3DF1283DC0
:1059100085AA5BBE633159BD3A3B06BE70F4063EB4
:10592000F65129BEDA8E91BD49CBB53B7A843E3C17
:10593000FEADE4BD59BA83BD267B543D4FB29B3BBF
:105940007B33F43D528B45BEB29ECC3D90370B3E2F
:10595000936AC43D1145C6BD176BAD3DC290FCBDF9
:105960004918A13D33943CBDE83E0EBE8E889B3D58
:105970002007A43D8BB0473DCCB28FBED4148DBD63
:10598000C449043D66C95A3E3532253E5A1C70BE94
:10599000B06C6CBE986F3DBEFF7FE43D7A50E5BDB4
:1059A000E8D43D3EB741BEBDC6B8583DD7CB87BD54
:1059B00086C86ABD6DF69BBD92C637BD91D320BD2A
:1059C0003F8EEB3D8D0212BCB5980D3E3106C63DB3
:1059D00044F21EBE5E74F7BD9CF545BC9DF00F3DC4
:1059E0007432383DA02E07BE4B22C9BDC84A153EB1
:1059F000BB13DD3D6987C13D241F123DAD31A73D7D
:105A0000FEBE353E09AC063EAA37593DE543BABD58
:105A1000B746493E6EB3843A1C467B3C1672F8BDCD
:105A200012D34A3E8B4BA33D731A0C3E251C93BDEB
:105A30006F02223EC5C39DBD47DD043E6DBFA4BDC0
:105A4000B5E1693DE12EE9BDFE3CA03D355F07BEF5
:105A5000FB3311BC0A72A73CC058103EEAEF40BDB0
:105A6000A89B94BD6D758FBC309E8FBD5DF1D73CFA
:105A7000C6651DBD9F31263D9D09F9BC29F655BE61
:105A8000E14F2C3D4FDC97BD8EB8CEBC8EF6ECBD01
:105A90003AC8C13B36EA6D3DA98B11BE92DE77BC98
:105AA00074DF3B3E3306B03D47270E3EAA2848BD73
:105AB000B96F3FBDA4FE61BA98138A3DE5EAADBC5B
:105AC000DC710B3EECEEE7BBD25C0D3E52CD513BA0
:105AD000D019493D105890BDCF1D263E2BB682BE31
